{
  "contractName": "CoveyStaking",
  "abi": [
    {
      "inputs": [],
      "stateMutability": "nonpayable",
      "type": "constructor"
    },
    {
      "anonymous": false,
      "inputs": [
        {
          "indexed": true,
          "internalType": "address",
          "name": "_adr",
          "type": "address"
        },
        {
          "indexed": false,
          "internalType": "uint256",
          "name": "amountLost",
          "type": "uint256"
        }
      ],
      "name": "Bankrupt",
      "type": "event"
    },
    {
      "anonymous": false,
      "inputs": [
        {
          "indexed": true,
          "internalType": "address",
          "name": "_adr",
          "type": "address"
        }
      ],
      "name": "CancelledUnstake",
      "type": "event"
    },
    {
      "anonymous": false,
      "inputs": [
        {
          "indexed": false,
          "internalType": "uint8",
          "name": "version",
          "type": "uint8"
        }
      ],
      "name": "Initialized",
      "type": "event"
    },
    {
      "anonymous": false,
      "inputs": [
        {
          "indexed": true,
          "internalType": "bytes32",
          "name": "role",
          "type": "bytes32"
        },
        {
          "indexed": true,
          "internalType": "bytes32",
          "name": "previousAdminRole",
          "type": "bytes32"
        },
        {
          "indexed": true,
          "internalType": "bytes32",
          "name": "newAdminRole",
          "type": "bytes32"
        }
      ],
      "name": "RoleAdminChanged",
      "type": "event"
    },
    {
      "anonymous": false,
      "inputs": [
        {
          "indexed": true,
          "internalType": "bytes32",
          "name": "role",
          "type": "bytes32"
        },
        {
          "indexed": true,
          "internalType": "address",
          "name": "account",
          "type": "address"
        },
        {
          "indexed": true,
          "internalType": "address",
          "name": "sender",
          "type": "address"
        }
      ],
      "name": "RoleGranted",
      "type": "event"
    },
    {
      "anonymous": false,
      "inputs": [
        {
          "indexed": true,
          "internalType": "bytes32",
          "name": "role",
          "type": "bytes32"
        },
        {
          "indexed": true,
          "internalType": "address",
          "name": "account",
          "type": "address"
        },
        {
          "indexed": true,
          "internalType": "address",
          "name": "sender",
          "type": "address"
        }
      ],
      "name": "RoleRevoked",
      "type": "event"
    },
    {
      "anonymous": false,
      "inputs": [
        {
          "indexed": true,
          "internalType": "address",
          "name": "_adr",
          "type": "address"
        },
        {
          "indexed": false,
          "internalType": "uint256",
          "name": "amountDispensed",
          "type": "uint256"
        }
      ],
      "name": "StakeDispensed",
      "type": "event"
    },
    {
      "anonymous": false,
      "inputs": [
        {
          "indexed": true,
          "internalType": "address",
          "name": "_adr",
          "type": "address"
        },
        {
          "indexed": false,
          "internalType": "uint256",
          "name": "amount",
          "type": "uint256"
        },
        {
          "indexed": false,
          "internalType": "uint256",
          "name": "totalStakedAmount",
          "type": "uint256"
        }
      ],
      "name": "Staked",
      "type": "event"
    },
    {
      "anonymous": false,
      "inputs": [
        {
          "indexed": true,
          "internalType": "address",
          "name": "_adr",
          "type": "address"
        },
        {
          "indexed": false,
          "internalType": "uint256",
          "name": "amount",
          "type": "uint256"
        },
        {
          "indexed": false,
          "internalType": "uint256",
          "name": "totalUnstakedAmount",
          "type": "uint256"
        }
      ],
      "name": "Unstaked",
      "type": "event"
    },
    {
      "inputs": [],
      "name": "DEFAULT_ADMIN_ROLE",
      "outputs": [
        {
          "internalType": "bytes32",
          "name": "",
          "type": "bytes32"
        }
      ],
      "stateMutability": "view",
      "type": "function",
      "constant": true
    },
    {
      "inputs": [],
      "name": "DISPENSER",
      "outputs": [
        {
          "internalType": "bytes32",
          "name": "",
          "type": "bytes32"
        }
      ],
      "stateMutability": "view",
      "type": "function",
      "constant": true
    },
    {
      "inputs": [
        {
          "internalType": "bytes32",
          "name": "role",
          "type": "bytes32"
        }
      ],
      "name": "getRoleAdmin",
      "outputs": [
        {
          "internalType": "bytes32",
          "name": "",
          "type": "bytes32"
        }
      ],
      "stateMutability": "view",
      "type": "function",
      "constant": true
    },
    {
      "inputs": [
        {
          "internalType": "bytes32",
          "name": "role",
          "type": "bytes32"
        },
        {
          "internalType": "address",
          "name": "account",
          "type": "address"
        }
      ],
      "name": "grantRole",
      "outputs": [],
      "stateMutability": "nonpayable",
      "type": "function"
    },
    {
      "inputs": [
        {
          "internalType": "bytes32",
          "name": "role",
          "type": "bytes32"
        },
        {
          "internalType": "address",
          "name": "account",
          "type": "address"
        }
      ],
      "name": "hasRole",
      "outputs": [
        {
          "internalType": "bool",
          "name": "",
          "type": "bool"
        }
      ],
      "stateMutability": "view",
      "type": "function",
      "constant": true
    },
    {
      "inputs": [
        {
          "internalType": "uint256",
          "name": "",
          "type": "uint256"
        }
      ],
      "name": "pendingUnstakers",
      "outputs": [
        {
          "internalType": "address",
          "name": "",
          "type": "address"
        }
      ],
      "stateMutability": "view",
      "type": "function",
      "constant": true
    },
    {
      "inputs": [
        {
          "internalType": "bytes32",
          "name": "role",
          "type": "bytes32"
        },
        {
          "internalType": "address",
          "name": "account",
          "type": "address"
        }
      ],
      "name": "renounceRole",
      "outputs": [],
      "stateMutability": "nonpayable",
      "type": "function"
    },
    {
      "inputs": [
        {
          "internalType": "bytes32",
          "name": "role",
          "type": "bytes32"
        },
        {
          "internalType": "address",
          "name": "account",
          "type": "address"
        }
      ],
      "name": "revokeRole",
      "outputs": [],
      "stateMutability": "nonpayable",
      "type": "function"
    },
    {
      "inputs": [
        {
          "internalType": "address",
          "name": "",
          "type": "address"
        }
      ],
      "name": "stakedAmounts",
      "outputs": [
        {
          "internalType": "uint256",
          "name": "",
          "type": "uint256"
        }
      ],
      "stateMutability": "view",
      "type": "function",
      "constant": true
    },
    {
      "inputs": [],
      "name": "stakingToken",
      "outputs": [
        {
          "internalType": "contract IERC20",
          "name": "",
          "type": "address"
        }
      ],
      "stateMutability": "view",
      "type": "function",
      "constant": true
    },
    {
      "inputs": [
        {
          "internalType": "bytes4",
          "name": "interfaceId",
          "type": "bytes4"
        }
      ],
      "name": "supportsInterface",
      "outputs": [
        {
          "internalType": "bool",
          "name": "",
          "type": "bool"
        }
      ],
      "stateMutability": "view",
      "type": "function",
      "constant": true
    },
    {
      "inputs": [
        {
          "internalType": "address",
          "name": "",
          "type": "address"
        }
      ],
      "name": "unstakedAmounts",
      "outputs": [
        {
          "internalType": "uint256",
          "name": "",
          "type": "uint256"
        }
      ],
      "stateMutability": "view",
      "type": "function",
      "constant": true
    },
    {
      "inputs": [
        {
          "internalType": "contract IERC20",
          "name": "_stakingToken",
          "type": "address"
        }
      ],
      "name": "initialize",
      "outputs": [],
      "stateMutability": "nonpayable",
      "type": "function"
    },
    {
      "inputs": [
        {
          "internalType": "uint256",
          "name": "amount",
          "type": "uint256"
        }
      ],
      "name": "stake",
      "outputs": [],
      "stateMutability": "nonpayable",
      "type": "function"
    },
    {
      "inputs": [
        {
          "internalType": "uint256",
          "name": "amount",
          "type": "uint256"
        }
      ],
      "name": "unstake",
      "outputs": [],
      "stateMutability": "nonpayable",
      "type": "function"
    },
    {
      "inputs": [
        {
          "internalType": "uint256",
          "name": "index",
          "type": "uint256"
        }
      ],
      "name": "cancelUnstake",
      "outputs": [],
      "stateMutability": "nonpayable",
      "type": "function"
    },
    {
      "inputs": [],
      "name": "cancelUnstake",
      "outputs": [],
      "stateMutability": "nonpayable",
      "type": "function"
    },
    {
      "inputs": [],
      "name": "dispenseStakes",
      "outputs": [],
      "stateMutability": "nonpayable",
      "type": "function"
    },
    {
      "inputs": [
        {
          "internalType": "address",
          "name": "bankruptciesReceiver",
          "type": "address"
        },
        {
          "internalType": "address[]",
          "name": "bankruptAddresses",
          "type": "address[]"
        },
        {
          "internalType": "uint256[]",
          "name": "indices",
          "type": "uint256[]"
        }
      ],
      "name": "bankruptStakers",
      "outputs": [],
      "stateMutability": "nonpayable",
      "type": "function"
    },
    {
      "inputs": [
        {
          "internalType": "address",
          "name": "staker",
          "type": "address"
        }
      ],
      "name": "getNetStaked",
      "outputs": [
        {
          "internalType": "uint256",
          "name": "",
          "type": "uint256"
        }
      ],
      "stateMutability": "view",
      "type": "function",
      "constant": true
    },
    {
      "inputs": [],
      "name": "getAllNetStaked",
      "outputs": [
        {
          "components": [
            {
              "internalType": "address",
              "name": "staker",
              "type": "address"
            },
            {
              "internalType": "uint256",
              "name": "stakedAmount",
              "type": "uint256"
            }
          ],
          "internalType": "struct CoveyStaking.StakeInfo[]",
          "name": "stakeInformation",
          "type": "tuple[]"
        }
      ],
      "stateMutability": "view",
      "type": "function",
      "constant": true
    },
    {
      "inputs": [
        {
          "internalType": "address",
          "name": "_addr",
          "type": "address"
        }
      ],
      "name": "delegateDispenser",
      "outputs": [],
      "stateMutability": "nonpayable",
      "type": "function"
    },
    {
      "inputs": [
        {
          "internalType": "address",
          "name": "_addr",
          "type": "address"
        }
      ],
      "name": "revokeDispenser",
      "outputs": [],
      "stateMutability": "nonpayable",
      "type": "function"
    },
    {
      "inputs": [],
      "name": "getPendingUnstakers",
      "outputs": [
        {
          "internalType": "address[]",
          "name": "_pendingUnstakers",
          "type": "address[]"
        }
      ],
      "stateMutability": "view",
      "type": "function",
      "constant": true
    }
  ],
  "bytecode": "0x60806040523480156200001157600080fd5b50620000226200002860201b60201c565b620001d3565b600060019054906101000a900460ff16156200007b576040517f08c379a0000000000000000000000000000000000000000000000000000000008152600401620000729062000176565b60405180910390fd5b60ff801660008054906101000a900460ff1660ff161015620000ed5760ff6000806101000a81548160ff021916908360ff1602179055507f7f26b83ff96e1f2b6a682f133852f6798a09c465da95921460cefb384740249860ff604051620000e49190620001b6565b60405180910390a15b565b600082825260208201905092915050565b7f496e697469616c697a61626c653a20636f6e747261637420697320696e69746960008201527f616c697a696e6700000000000000000000000000000000000000000000000000602082015250565b60006200015e602783620000ef565b91506200016b8262000100565b604082019050919050565b6000602082019050818103600083015262000191816200014f565b9050919050565b600060ff82169050919050565b620001b08162000198565b82525050565b6000602082019050620001cd6000830184620001a5565b92915050565b61378e80620001e36000396000f3fe608060405234801561001057600080fd5b50600436106101585760003560e01c8063681a946e116100c3578063b2d1e58c1161007c578063b2d1e58c146103af578063c4d66de8146103cd578063d547741f146103e9578063ded2e7da14610405578063e14cf1e414610435578063fbb83bf21461045357610158565b8063681a946e146102db57806372f702f31461030b578063866c1f5f1461032957806391d1485414610345578063a217fddf14610375578063a694fc3a1461039357610158565b80632f2ff15d116101155780632f2ff15d1461022f57806336568abe1461024b5780633bacd1b5146102675780634ab179691461029757806362c9a371146102a15780636620f595146102bf57610158565b806301ffc9a71461015d57806310c1c1031461018d57806322c49460146101bd578063248a9ca3146101c75780632b187b2b146101f75780632e17de7814610213575b600080fd5b61017760048036038101906101729190612664565b61046f565b60405161018491906126ac565b60405180910390f35b6101a760048036038101906101a29190612725565b6104e9565b6040516101b4919061276b565b60405180910390f35b6101c5610501565b005b6101e160048036038101906101dc91906127bc565b61085b565b6040516101ee91906127f8565b60405180910390f35b610211600480360381019061020c919061283f565b61087b565b005b61022d6004803603810190610228919061283f565b610b25565b005b6102496004803603810190610244919061286c565b610d3c565b005b6102656004803603810190610260919061286c565b610d5d565b005b610281600480360381019061027c9190612725565b610de0565b60405161028e919061276b565b60405180910390f35b61029f610df8565b005b6102a961108e565b6040516102b6919061296a565b60405180910390f35b6102d960048036038101906102d49190612725565b61111c565b005b6102f560048036038101906102f0919061283f565b611195565b604051610302919061299b565b60405180910390f35b6103136111d4565b6040516103209190612a15565b60405180910390f35b610343600480360381019061033e9190612725565b6111fa565b005b61035f600480360381019061035a919061286c565b611273565b60405161036c91906126ac565b60405180910390f35b61037d6112de565b60405161038a91906127f8565b60405180910390f35b6103ad60048036038101906103a8919061283f565b6112e5565b005b6103b76114e0565b6040516103c491906127f8565b60405180910390f35b6103e760048036038101906103e29190612a6e565b611504565b005b61040360048036038101906103fe919061286c565b611691565b005b61041f600480360381019061041a9190612725565b6116b2565b60405161042c919061276b565b60405180910390f35b61043d611745565b60405161044a9190612b88565b60405180910390f35b61046d60048036038101906104689190612c65565b611835565b005b60007f7965db0b000000000000000000000000000000000000000000000000000000007bffffffffffffffffffffffffffffffffffffffffffffffffffffffff1916827bffffffffffffffffffffffffffffffffffffffffffffffffffffffff191614806104e257506104e182611d39565b5b9050919050565b609b6020528060005260406000206000915090505481565b61050e6000801b33611273565b8061053f575061053e7f6819d2896fa4833eb5158abc566f5567fa977a468f59c2b18ae25bfe434af5c333611273565b5b61057e576040517f08c379a000000000000000000000000000000000000000000000000000000000815260040161057590612d57565b60405180910390fd5b6000609a80549050905060008060005b8381101561084757609a81815481106105aa576105a9612d77565b5b9060005260206000200160009054906101000a900473ffffffffffffffffffffffffffffffffffffffff169250609c60008473ffffffffffffffffffffffffffffffffffffffff1673ffffffffffffffffffffffffffffffffffffffff16815260200190815260200160002054915081609b60008573ffffffffffffffffffffffffffffffffffffffff1673ffffffffffffffffffffffffffffffffffffffff168152602001908152602001600020546106649190612dd5565b609b60008573ffffffffffffffffffffffffffffffffffffffff1673ffffffffffffffffffffffffffffffffffffffff16815260200190815260200160002081905550609c60008473ffffffffffffffffffffffffffffffffffffffff1673ffffffffffffffffffffffffffffffffffffffff168152602001908152602001600020600090556000609b60008573ffffffffffffffffffffffffffffffffffffffff1673ffffffffffffffffffffffffffffffffffffffff168152602001908152602001600020540361074757610745836098611da390919063ffffffff16565b505b609760009054906101000a900473ffffffffffffffffffffffffffffffffffffffff1673ffffffffffffffffffffffffffffffffffffffff1663a9059cbb84846040518363ffffffff1660e01b81526004016107a4929190612e09565b6020604051808303816000875af11580156107c3573d6000803e3d6000fd5b505050506040513d601f19601f820116820180604052508101906107e79190612e5e565b508273ffffffffffffffffffffffffffffffffffffffff167f9b4c90d41aa819dadecbb2e126e6dc2e01be4402acc99ec60248131a3f59576c8360405161082e919061276b565b60405180910390a28061084090612e8b565b905061058e565b50609a60006108569190612594565b505050565b600060656000838152602001908152602001600020600101549050919050565b6000609c60003373ffffffffffffffffffffffffffffffffffffffff1673ffffffffffffffffffffffffffffffffffffffff16815260200190815260200160002054116108fd576040517f08c379a00000000000000000000000000000000000000000000000000000000081526004016108f490612f1f565b60405180910390fd5b609c60003373ffffffffffffffffffffffffffffffffffffffff1673ffffffffffffffffffffffffffffffffffffffff168152602001908152602001600020600090553373ffffffffffffffffffffffffffffffffffffffff16609a828154811061096b5761096a612d77565b5b9060005260206000200160009054906101000a900473ffffffffffffffffffffffffffffffffffffffff1673ffffffffffffffffffffffffffffffffffffffff16146109ec576040517f08c379a00000000000000000000000000000000000000000000000000000000081526004016109e390612f8b565b60405180910390fd5b609a6001609a80549050610a009190612dd5565b81548110610a1157610a10612d77565b5b9060005260206000200160009054906101000a900473ffffffffffffffffffffffffffffffffffffffff16609a8281548110610a5057610a4f612d77565b5b9060005260206000200160006101000a81548173ffffffffffffffffffffffffffffffffffffffff021916908373ffffffffffffffffffffffffffffffffffffffff160217905550609a805480610aaa57610aa9612fab565b5b6001900381819060005260206000200160006101000a81549073ffffffffffffffffffffffffffffffffffffffff021916905590553373ffffffffffffffffffffffffffffffffffffffff167f450cc0f663f8ded0053aeca240ef53a2f4b93c5c3aa067e8e45155e823ceaa7a60405160405180910390a250565b60008103610b68576040517f08c379a0000000000000000000000000000000000000000000000000000000008152600401610b5f90613026565b60405180910390fd5b600081609c60003373ffffffffffffffffffffffffffffffffffffffff1673ffffffffffffffffffffffffffffffffffffffff16815260200190815260200160002054610bb59190613046565b905080609b60003373ffffffffffffffffffffffffffffffffffffffff1673ffffffffffffffffffffffffffffffffffffffff168152602001908152602001600020541015610c39576040517f08c379a0000000000000000000000000000000000000000000000000000000008152600401610c30906130c6565b60405180910390fd5b818103610ca457609a339080600181540180825580915050600190039060005260206000200160009091909190916101000a81548173ffffffffffffffffffffffffffffffffffffffff021916908373ffffffffffffffffffffffffffffffffffffffff1602179055505b80609c60003373ffffffffffffffffffffffffffffffffffffffff1673ffffffffffffffffffffffffffffffffffffffff168152602001908152602001600020819055503373ffffffffffffffffffffffffffffffffffffffff167f7fc4727e062e336010f2c282598ef5f14facb3de68cf8195c2f23e1454b2b74e8383604051610d309291906130e6565b60405180910390a25050565b610d458261085b565b610d4e81611dd3565b610d588383611de7565b505050565b610d65611ec8565b73ffffffffffffffffffffffffffffffffffffffff168173ffffffffffffffffffffffffffffffffffffffff1614610dd2576040517f08c379a0000000000000000000000000000000000000000000000000000000008152600401610dc990613181565b60405180910390fd5b610ddc8282611ed0565b5050565b609c6020528060005260406000206000915090505481565b6000609c60003373ffffffffffffffffffffffffffffffffffffffff1673ffffffffffffffffffffffffffffffffffffffff1681526020019081526020016000205411610e7a576040517f08c379a0000000000000000000000000000000000000000000000000000000008152600401610e7190612f1f565b60405180910390fd5b609c60003373ffffffffffffffffffffffffffffffffffffffff1673ffffffffffffffffffffffffffffffffffffffff168152602001908152602001600020600090556000609a80549050905060005b81811015611047573373ffffffffffffffffffffffffffffffffffffffff16609a8281548110610efd57610efc612d77565b5b9060005260206000200160009054906101000a900473ffffffffffffffffffffffffffffffffffffffff1673ffffffffffffffffffffffffffffffffffffffff160361103657609a600183610f529190612dd5565b81548110610f6357610f62612d77565b5b9060005260206000200160009054906101000a900473ffffffffffffffffffffffffffffffffffffffff16609a8281548110610fa257610fa1612d77565b5b9060005260206000200160006101000a81548173ffffffffffffffffffffffffffffffffffffffff021916908373ffffffffffffffffffffffffffffffffffffffff160217905550609a805480610ffc57610ffb612fab565b5b6001900381819060005260206000200160006101000a81549073ffffffffffffffffffffffffffffffffffffffff02191690559055611047565b8061104090612e8b565b9050610eca565b503373ffffffffffffffffffffffffffffffffffffffff167f450cc0f663f8ded0053aeca240ef53a2f4b93c5c3aa067e8e45155e823ceaa7a60405160405180910390a250565b6060609a80548060200260200160405190810160405280929190818152602001828054801561111257602002820191906000526020600020905b8160009054906101000a900473ffffffffffffffffffffffffffffffffffffffff1673ffffffffffffffffffffffffffffffffffffffff16815260200190600101908083116110c8575b5050505050905090565b6111296000801b33611273565b611168576040517f08c379a000000000000000000000000000000000000000000000000000000000815260040161115f906131ed565b60405180910390fd5b6111927f6819d2896fa4833eb5158abc566f5567fa977a468f59c2b18ae25bfe434af5c382610d3c565b50565b609a81815481106111a557600080fd5b906000526020600020016000915054906101000a900473ffffffffffffffffffffffffffffffffffffffff1681565b609760009054906101000a900473ffffffffffffffffffffffffffffffffffffffff1681565b6112076000801b33611273565b611246576040517f08c379a000000000000000000000000000000000000000000000000000000000815260040161123d906131ed565b60405180910390fd5b6112707f6819d2896fa4833eb5158abc566f5567fa977a468f59c2b18ae25bfe434af5c382611691565b50565b60006065600084815260200190815260200160002060000160008373ffffffffffffffffffffffffffffffffffffffff1673ffffffffffffffffffffffffffffffffffffffff16815260200190815260200160002060009054906101000a900460ff16905092915050565b6000801b81565b60008103611328576040517f08c379a000000000000000000000000000000000000000000000000000000000815260040161131f90613026565b60405180910390fd5b609760009054906101000a900473ffffffffffffffffffffffffffffffffffffffff1673ffffffffffffffffffffffffffffffffffffffff166323b872dd3330846040518463ffffffff1660e01b81526004016113879392919061320d565b6020604051808303816000875af11580156113a6573d6000803e3d6000fd5b505050506040513d601f19601f820116820180604052508101906113ca9190612e5e565b506113df336098611fb290919063ffffffff16565b6113f9576113f7336098611fe290919063ffffffff16565b505b600081609b60003373ffffffffffffffffffffffffffffffffffffffff1673ffffffffffffffffffffffffffffffffffffffff168152602001908152602001600020546114469190613046565b905080609b60003373ffffffffffffffffffffffffffffffffffffffff1673ffffffffffffffffffffffffffffffffffffffff168152602001908152602001600020819055503373ffffffffffffffffffffffffffffffffffffffff167f1449c6dd7851abc30abf37f57715f492010519147cc2652fbc38202c18a6ee9083836040516114d49291906130e6565b60405180910390a25050565b7f6819d2896fa4833eb5158abc566f5567fa977a468f59c2b18ae25bfe434af5c381565b60008060019054906101000a900460ff161590508080156115355750600160008054906101000a900460ff1660ff16105b80611562575061154430612012565b1580156115615750600160008054906101000a900460ff1660ff16145b5b6115a1576040517f08c379a0000000000000000000000000000000000000000000000000000000008152600401611598906132b6565b60405180910390fd5b60016000806101000a81548160ff021916908360ff16021790555080156115de576001600060016101000a81548160ff0219169083151502179055505b6115e6612035565b81609760006101000a81548173ffffffffffffffffffffffffffffffffffffffff021916908373ffffffffffffffffffffffffffffffffffffffff1602179055506116346000801b33612086565b801561168d5760008060016101000a81548160ff0219169083151502179055507f7f26b83ff96e1f2b6a682f133852f6798a09c465da95921460cefb38474024986001604051611684919061331e565b60405180910390a15b5050565b61169a8261085b565b6116a381611dd3565b6116ad8383611ed0565b505050565b6000609c60008373ffffffffffffffffffffffffffffffffffffffff1673ffffffffffffffffffffffffffffffffffffffff16815260200190815260200160002054609b60008473ffffffffffffffffffffffffffffffffffffffff1673ffffffffffffffffffffffffffffffffffffffff1681526020019081526020016000205461173e9190612dd5565b9050919050565b606060006117536098612094565b90508067ffffffffffffffff81111561176f5761176e613339565b5b6040519080825280602002602001820160405280156117a857816020015b6117956125b5565b81526020019060019003908161178d5790505b5091506000805b8281101561182f576117cb8160986120a990919063ffffffff16565b915060405180604001604052808373ffffffffffffffffffffffffffffffffffffffff1681526020016117fd846116b2565b81525084828151811061181357611812612d77565b5b60200260200101819052508061182890612e8b565b90506117af565b50505090565b6118426000801b33611273565b8061187357506118727f6819d2896fa4833eb5158abc566f5567fa977a468f59c2b18ae25bfe434af5c333611273565b5b6118b2576040517f08c379a00000000000000000000000000000000000000000000000000000000081526004016118a990612d57565b60405180910390fd5b60008484905090508282905081146118ff576040517f08c379a00000000000000000000000000000000000000000000000000000000081526004016118f6906133b4565b60405180910390fd5b60008060005b83811015611d2e578787828181106119205761191f612d77565b5b90506020020160208101906119359190612725565b9250609b60008473ffffffffffffffffffffffffffffffffffffffff1673ffffffffffffffffffffffffffffffffffffffff1681526020019081526020016000205491506000609c60008573ffffffffffffffffffffffffffffffffffffffff1673ffffffffffffffffffffffffffffffffffffffff168152602001908152602001600020541115611bd6578273ffffffffffffffffffffffffffffffffffffffff16609a8787848181106119ed576119ec612d77565b5b9050602002013581548110611a0557611a04612d77565b5b9060005260206000200160009054906101000a900473ffffffffffffffffffffffffffffffffffffffff1673ffffffffffffffffffffffffffffffffffffffff1614611a86576040517f08c379a0000000000000000000000000000000000000000000000000000000008152600401611a7d90613420565b60405180910390fd5b609a6001609a80549050611a9a9190612dd5565b81548110611aab57611aaa612d77565b5b9060005260206000200160009054906101000a900473ffffffffffffffffffffffffffffffffffffffff16609a878784818110611aeb57611aea612d77565b5b9050602002013581548110611b0357611b02612d77565b5b9060005260206000200160006101000a81548173ffffffffffffffffffffffffffffffffffffffff021916908373ffffffffffffffffffffffffffffffffffffffff160217905550609a805480611b5d57611b5c612fab565b5b6001900381819060005260206000200160006101000a81549073ffffffffffffffffffffffffffffffffffffffff02191690559055609c60008473ffffffffffffffffffffffffffffffffffffffff1673ffffffffffffffffffffffffffffffffffffffff168152602001908152602001600020600090555b609b60008473ffffffffffffffffffffffffffffffffffffffff1673ffffffffffffffffffffffffffffffffffffffff16815260200190815260200160002060009055611c2d836098611da390919063ffffffff16565b50609760009054906101000a900473ffffffffffffffffffffffffffffffffffffffff1673ffffffffffffffffffffffffffffffffffffffff1663a9059cbb8a846040518363ffffffff1660e01b8152600401611c8b929190612e09565b6020604051808303816000875af1158015611caa573d6000803e3d6000fd5b505050506040513d601f19601f82011682018060405250810190611cce9190612e5e565b508273ffffffffffffffffffffffffffffffffffffffff167f7fe451685bab7a17da665cc038b4635412b8d788bb692963f88e35eba15ae17583604051611d15919061276b565b60405180910390a280611d2790612e8b565b9050611905565b505050505050505050565b60007f01ffc9a7000000000000000000000000000000000000000000000000000000007bffffffffffffffffffffffffffffffffffffffffffffffffffffffff1916827bffffffffffffffffffffffffffffffffffffffffffffffffffffffff1916149050919050565b6000611dcb836000018373ffffffffffffffffffffffffffffffffffffffff1660001b6120c3565b905092915050565b611de481611ddf611ec8565b6121d7565b50565b611df18282611273565b611ec45760016065600084815260200190815260200160002060000160008373ffffffffffffffffffffffffffffffffffffffff1673ffffffffffffffffffffffffffffffffffffffff16815260200190815260200160002060006101000a81548160ff021916908315150217905550611e69611ec8565b73ffffffffffffffffffffffffffffffffffffffff168173ffffffffffffffffffffffffffffffffffffffff16837f2f8788117e7eff1d82e926ec794901d17c78024a50270940304540a733656f0d60405160405180910390a45b5050565b600033905090565b611eda8282611273565b15611fae5760006065600084815260200190815260200160002060000160008373ffffffffffffffffffffffffffffffffffffffff1673ffffffffffffffffffffffffffffffffffffffff16815260200190815260200160002060006101000a81548160ff021916908315150217905550611f53611ec8565b73ffffffffffffffffffffffffffffffffffffffff168173ffffffffffffffffffffffffffffffffffffffff16837ff6391f5c32d9c69d2a47ea670b442974b53935d1edc7fd64eb21e047a839171b60405160405180910390a45b5050565b6000611fda836000018373ffffffffffffffffffffffffffffffffffffffff1660001b61225c565b905092915050565b600061200a836000018373ffffffffffffffffffffffffffffffffffffffff1660001b61227f565b905092915050565b6000808273ffffffffffffffffffffffffffffffffffffffff163b119050919050565b600060019054906101000a900460ff16612084576040517f08c379a000000000000000000000000000000000000000000000000000000000815260040161207b906134b2565b60405180910390fd5b565b6120908282611de7565b5050565b60006120a2826000016122ef565b9050919050565b60006120b88360000183612300565b60001c905092915050565b600080836001016000848152602001908152602001600020549050600081146121cb5760006001826120f59190612dd5565b905060006001866000018054905061210d9190612dd5565b905081811461217c57600086600001828154811061212e5761212d612d77565b5b906000526020600020015490508087600001848154811061215257612151612d77565b5b90600052602060002001819055508387600101600083815260200190815260200160002081905550505b856000018054806121905761218f612fab565b5b6001900381819060005260206000200160009055905585600101600086815260200190815260200160002060009055600193505050506121d1565b60009150505b92915050565b6121e18282611273565b612258576121ee8161232b565b6121fc8360001c6020612358565b60405160200161220d9291906135db565b6040516020818303038152906040526040517f08c379a000000000000000000000000000000000000000000000000000000000815260040161224f919061365f565b60405180910390fd5b5050565b600080836001016000848152602001908152602001600020541415905092915050565b600061228b838361225c565b6122e45782600001829080600181540180825580915050600190039060005260206000200160009091909190915055826000018054905083600101600084815260200190815260200160002081905550600190506122e9565b600090505b92915050565b600081600001805490509050919050565b600082600001828154811061231857612317612d77565b5b9060005260206000200154905092915050565b60606123518273ffffffffffffffffffffffffffffffffffffffff16601460ff16612358565b9050919050565b60606000600283600261236b9190613681565b6123759190613046565b67ffffffffffffffff81111561238e5761238d613339565b5b6040519080825280601f01601f1916602001820160405280156123c05781602001600182028036833780820191505090505b5090507f3000000000000000000000000000000000000000000000000000000000000000816000815181106123f8576123f7612d77565b5b60200101907effffffffffffffffffffffffffffffffffffffffffffffffffffffffffffff1916908160001a9053507f78000000000000000000000000000000000000000000000000000000000000008160018151811061245c5761245b612d77565b5b60200101907effffffffffffffffffffffffffffffffffffffffffffffffffffffffffffff1916908160001a9053506000600184600261249c9190613681565b6124a69190613046565b90505b6001811115612546577f3031323334353637383961626364656600000000000000000000000000000000600f8616601081106124e8576124e7612d77565b5b1a60f81b8282815181106124ff576124fe612d77565b5b60200101907effffffffffffffffffffffffffffffffffffffffffffffffffffffffffffff1916908160001a905350600485901c94508061253f906136c3565b90506124a9565b506000841461258a576040517f08c379a000000000000000000000000000000000000000000000000000000000815260040161258190613738565b60405180910390fd5b8091505092915050565b50805460008255906000526020600020908101906125b291906125e5565b50565b6040518060400160405280600073ffffffffffffffffffffffffffffffffffffffff168152602001600081525090565b5b808211156125fe5760008160009055506001016125e6565b5090565b600080fd5b600080fd5b60007fffffffff0000000000000000000000000000000000000000000000000000000082169050919050565b6126418161260c565b811461264c57600080fd5b50565b60008135905061265e81612638565b92915050565b60006020828403121561267a57612679612602565b5b60006126888482850161264f565b91505092915050565b60008115159050919050565b6126a681612691565b82525050565b60006020820190506126c1600083018461269d565b92915050565b600073ffffffffffffffffffffffffffffffffffffffff82169050919050565b60006126f2826126c7565b9050919050565b612702816126e7565b811461270d57600080fd5b50565b60008135905061271f816126f9565b92915050565b60006020828403121561273b5761273a612602565b5b600061274984828501612710565b91505092915050565b6000819050919050565b61276581612752565b82525050565b6000602082019050612780600083018461275c565b92915050565b6000819050919050565b61279981612786565b81146127a457600080fd5b50565b6000813590506127b681612790565b92915050565b6000602082840312156127d2576127d1612602565b5b60006127e0848285016127a7565b91505092915050565b6127f281612786565b82525050565b600060208201905061280d60008301846127e9565b92915050565b61281c81612752565b811461282757600080fd5b50565b60008135905061283981612813565b92915050565b60006020828403121561285557612854612602565b5b60006128638482850161282a565b91505092915050565b6000806040838503121561288357612882612602565b5b6000612891858286016127a7565b92505060206128a285828601612710565b9150509250929050565b600081519050919050565b600082825260208201905092915050565b6000819050602082019050919050565b6128e1816126e7565b82525050565b60006128f383836128d8565b60208301905092915050565b6000602082019050919050565b6000612917826128ac565b61292181856128b7565b935061292c836128c8565b8060005b8381101561295d57815161294488826128e7565b975061294f836128ff565b925050600181019050612930565b5085935050505092915050565b60006020820190508181036000830152612984818461290c565b905092915050565b612995816126e7565b82525050565b60006020820190506129b0600083018461298c565b92915050565b6000819050919050565b60006129db6129d66129d1846126c7565b6129b6565b6126c7565b9050919050565b60006129ed826129c0565b9050919050565b60006129ff826129e2565b9050919050565b612a0f816129f4565b82525050565b6000602082019050612a2a6000830184612a06565b92915050565b6000612a3b826126e7565b9050919050565b612a4b81612a30565b8114612a5657600080fd5b50565b600081359050612a6881612a42565b92915050565b600060208284031215612a8457612a83612602565b5b6000612a9284828501612a59565b91505092915050565b600081519050919050565b600082825260208201905092915050565b6000819050602082019050919050565b612ad081612752565b82525050565b604082016000820151612aec60008501826128d8565b506020820151612aff6020850182612ac7565b50505050565b6000612b118383612ad6565b60408301905092915050565b6000602082019050919050565b6000612b3582612a9b565b612b3f8185612aa6565b9350612b4a83612ab7565b8060005b83811015612b7b578151612b628882612b05565b9750612b6d83612b1d565b925050600181019050612b4e565b5085935050505092915050565b60006020820190508181036000830152612ba28184612b2a565b905092915050565b600080fd5b600080fd5b600080fd5b60008083601f840112612bcf57612bce612baa565b5b8235905067ffffffffffffffff811115612bec57612beb612baf565b5b602083019150836020820283011115612c0857612c07612bb4565b5b9250929050565b60008083601f840112612c2557612c24612baa565b5b8235905067ffffffffffffffff811115612c4257612c41612baf565b5b602083019150836020820283011115612c5e57612c5d612bb4565b5b9250929050565b600080600080600060608688031215612c8157612c80612602565b5b6000612c8f88828901612710565b955050602086013567ffffffffffffffff811115612cb057612caf612607565b5b612cbc88828901612bb9565b9450945050604086013567ffffffffffffffff811115612cdf57612cde612607565b5b612ceb88828901612c0f565b92509250509295509295909350565b600082825260208201905092915050565b7f4f6e6c79206f776e6572206f722064697370656e736572000000000000000000600082015250565b6000612d41601783612cfa565b9150612d4c82612d0b565b602082019050919050565b60006020820190508181036000830152612d7081612d34565b9050919050565b7f4e487b7100000000000000000000000000000000000000000000000000000000600052603260045260246000fd5b7f4e487b7100000000000000000000000000000000000000000000000000000000600052601160045260246000fd5b6000612de082612752565b9150612deb83612752565b9250828203905081811115612e0357612e02612da6565b5b92915050565b6000604082019050612e1e600083018561298c565b612e2b602083018461275c565b9392505050565b612e3b81612691565b8114612e4657600080fd5b50565b600081519050612e5881612e32565b92915050565b600060208284031215612e7457612e73612602565b5b6000612e8284828501612e49565b91505092915050565b6000612e9682612752565b91507fffffffffffffffffffffffffffffffffffffffffffffffffffffffffffffffff8203612ec857612ec7612da6565b5b600182019050919050565b7f3020756e7374616b650000000000000000000000000000000000000000000000600082015250565b6000612f09600983612cfa565b9150612f1482612ed3565b602082019050919050565b60006020820190508181036000830152612f3881612efc565b9050919050565b7f57726f6e6720696e646578000000000000000000000000000000000000000000600082015250565b6000612f75600b83612cfa565b9150612f8082612f3f565b602082019050919050565b60006020820190508181036000830152612fa481612f68565b9050919050565b7f4e487b7100000000000000000000000000000000000000000000000000000000600052603160045260246000fd5b7f3020616d6f756e74000000000000000000000000000000000000000000000000600082015250565b6000613010600883612cfa565b915061301b82612fda565b602082019050919050565b6000602082019050818103600083015261303f81613003565b9050919050565b600061305182612752565b915061305c83612752565b925082820190508082111561307457613073612da6565b5b92915050565b7f556e7374616b696e6720746f6f206c6172676500000000000000000000000000600082015250565b60006130b0601383612cfa565b91506130bb8261307a565b602082019050919050565b600060208201905081810360008301526130df816130a3565b9050919050565b60006040820190506130fb600083018561275c565b613108602083018461275c565b9392505050565b7f416363657373436f6e74726f6c3a2063616e206f6e6c792072656e6f756e636560008201527f20726f6c657320666f722073656c660000000000000000000000000000000000602082015250565b600061316b602f83612cfa565b91506131768261310f565b604082019050919050565b6000602082019050818103600083015261319a8161315e565b9050919050565b7f4e6f74206f776e65720000000000000000000000000000000000000000000000600082015250565b60006131d7600983612cfa565b91506131e2826131a1565b602082019050919050565b60006020820190508181036000830152613206816131ca565b9050919050565b6000606082019050613222600083018661298c565b61322f602083018561298c565b61323c604083018461275c565b949350505050565b7f496e697469616c697a61626c653a20636f6e747261637420697320616c72656160008201527f647920696e697469616c697a6564000000000000000000000000000000000000602082015250565b60006132a0602e83612cfa565b91506132ab82613244565b604082019050919050565b600060208201905081810360008301526132cf81613293565b9050919050565b6000819050919050565b600060ff82169050919050565b60006133086133036132fe846132d6565b6129b6565b6132e0565b9050919050565b613318816132ed565b82525050565b6000602082019050613333600083018461330f565b92915050565b7f4e487b7100000000000000000000000000000000000000000000000000000000600052604160045260246000fd5b7f6c656e677468206d69736d617463680000000000000000000000000000000000600082015250565b600061339e600f83612cfa565b91506133a982613368565b602082019050919050565b600060208201905081810360008301526133cd81613391565b9050919050565b7f77726f6e6720696e646578000000000000000000000000000000000000000000600082015250565b600061340a600b83612cfa565b9150613415826133d4565b602082019050919050565b60006020820190508181036000830152613439816133fd565b9050919050565b7f496e697469616c697a61626c653a20636f6e7472616374206973206e6f74206960008201527f6e697469616c697a696e67000000000000000000000000000000000000000000602082015250565b600061349c602b83612cfa565b91506134a782613440565b604082019050919050565b600060208201905081810360008301526134cb8161348f565b9050919050565b600081905092915050565b7f416363657373436f6e74726f6c3a206163636f756e7420000000000000000000600082015250565b60006135136017836134d2565b915061351e826134dd565b601782019050919050565b600081519050919050565b60005b83811015613552578082015181840152602081019050613537565b60008484015250505050565b600061356982613529565b61357381856134d2565b9350613583818560208601613534565b80840191505092915050565b7f206973206d697373696e6720726f6c6520000000000000000000000000000000600082015250565b60006135c56011836134d2565b91506135d08261358f565b601182019050919050565b60006135e682613506565b91506135f2828561355e565b91506135fd826135b8565b9150613609828461355e565b91508190509392505050565b6000601f19601f8301169050919050565b600061363182613529565b61363b8185612cfa565b935061364b818560208601613534565b61365481613615565b840191505092915050565b600060208201905081810360008301526136798184613626565b905092915050565b600061368c82612752565b915061369783612752565b92508282026136a581612752565b915082820484148315176136bc576136bb612da6565b5b5092915050565b60006136ce82612752565b9150600082036136e1576136e0612da6565b5b600182039050919050565b7f537472696e67733a20686578206c656e67746820696e73756666696369656e74600082015250565b6000613722602083612cfa565b915061372d826136ec565b602082019050919050565b6000602082019050818103600083015261375181613715565b905091905056fea26469706673582212203bca5ac5144b63ad35e3a4bcdd6626468957b9e454f04ab94f74e752ce2949a564736f6c63430008110033",
  "immutableReferences": {},
  "source": "// contracts/CoveyStaking.sol\r\n// SPDX-License-Identifier: MIT\r\npragma solidity ^0.8.9;\r\n\r\nimport '@openzeppelin/contracts-upgradeable/proxy/utils/Initializable.sol';\r\nimport '@openzeppelin/contracts/token/ERC20/IERC20.sol';\r\nimport \"@openzeppelin/contracts-upgradeable/access/AccessControlUpgradeable.sol\";\r\nimport \"@openzeppelin/contracts-upgradeable/utils/structs/EnumerableSetUpgradeable.sol\";\r\n\r\ncontract CoveyStaking is Initializable, AccessControlUpgradeable {\r\n    using EnumerableSetUpgradeable for EnumerableSetUpgradeable.AddressSet;\r\n\r\n    bytes32 public constant DISPENSER = keccak256(\"DISPENSER\");\r\n    IERC20 public stakingToken;\r\n    struct StakeInfo {\r\n      address staker;\r\n      uint256 stakedAmount;\r\n    }\r\n    EnumerableSetUpgradeable.AddressSet internal stakers;\r\n    address[] public pendingUnstakers;\r\n\r\n    mapping(address => uint256) public stakedAmounts;\r\n    mapping(address => uint256) public unstakedAmounts;\r\n\r\n    event Staked(address indexed _adr, uint256 amount, uint256 totalStakedAmount);\r\n    \r\n    event Unstaked(address indexed _adr, uint256 amount, uint256 totalUnstakedAmount);\r\n\r\n    event CancelledUnstake(address indexed _adr);\r\n\r\n    event Bankrupt(address indexed _adr, uint256 amountLost);\r\n\r\n    event StakeDispensed(address indexed _adr, uint256 amountDispensed);\r\n\r\n    modifier onlyOwner {\r\n        require(hasRole(DEFAULT_ADMIN_ROLE, msg.sender), \"Not owner\");\r\n        _;\r\n    }\r\n\r\n    modifier onlyOwnerOrDispenser {\r\n        require(\r\n            hasRole(DEFAULT_ADMIN_ROLE, msg.sender) ||\r\n            hasRole(DISPENSER, msg.sender),\r\n            \"Only owner or dispenser\"\r\n        );\r\n        _;\r\n    }\r\n\r\n    /// @custom:oz-upgrades-unsafe-allow constructor\r\n    constructor() {\r\n        _disableInitializers();\r\n    }\r\n\r\n    function initialize(IERC20 _stakingToken) public initializer {\r\n        __AccessControl_init();\r\n        stakingToken = _stakingToken;\r\n        _setupRole(DEFAULT_ADMIN_ROLE, msg.sender);\r\n    }\r\n\r\n    function stake(uint256 amount) external {\r\n        require(amount != 0, \"0 amount\");\r\n        stakingToken.transferFrom(msg.sender, address(this), amount);\r\n        // if recognised as first time staker, push to staker list\r\n        if (!stakers.contains(msg.sender)) stakers.add(msg.sender);\r\n        uint256 totalStakedAmount = stakedAmounts[msg.sender] + amount;\r\n        stakedAmounts[msg.sender] = totalStakedAmount;\r\n        emit Staked(msg.sender, amount, totalStakedAmount);\r\n    }\r\n\r\n    function unstake(uint256 amount) external {\r\n        require(amount != 0, \"0 amount\");\r\n        uint256 totalUnstakedAmount = unstakedAmounts[msg.sender] + amount;\r\n        require(stakedAmounts[msg.sender] >= totalUnstakedAmount, \"Unstaking too large\");\r\n        // add to pending unstaker list\r\n        // if user unstaking for first time since dispenseStakes() was called\r\n        // checking (totalUnstakedAmount == amount) instead of (unstakedAmounts[msg.sender] == 0)\r\n        // is more gas efficient because it avoids an SLOAD\r\n        if (totalUnstakedAmount == amount) {\r\n            pendingUnstakers.push(msg.sender);\r\n        }\r\n        unstakedAmounts[msg.sender] = totalUnstakedAmount;\r\n        emit Unstaked(msg.sender, amount, totalUnstakedAmount);\r\n    }\r\n\r\n    /// @dev iterates through pendingUnstakers, might run out of gas\r\n    function cancelUnstake() external {\r\n        require(unstakedAmounts[msg.sender] > 0, \"0 unstake\");\r\n        delete unstakedAmounts[msg.sender];\r\n        uint256 numUnstakers = pendingUnstakers.length;\r\n        for (uint i; i < numUnstakers; ++i) {\r\n            if (pendingUnstakers[i] == msg.sender) {\r\n                pendingUnstakers[i] = pendingUnstakers[numUnstakers - 1];\r\n                pendingUnstakers.pop();\r\n                break;\r\n            }\r\n        }\r\n        emit CancelledUnstake(msg.sender);\r\n    }\r\n\r\n    /// @dev more gas efficient by taking in the index to avoid iterating through pendingUnstakers\r\n    function cancelUnstake(uint256 index) external {\r\n        require(unstakedAmounts[msg.sender] > 0, \"0 unstake\");\r\n        delete unstakedAmounts[msg.sender];\r\n        require(pendingUnstakers[index] == msg.sender, \"Wrong index\");\r\n        pendingUnstakers[index] = pendingUnstakers[pendingUnstakers.length - 1];\r\n        pendingUnstakers.pop();\r\n        emit CancelledUnstake(msg.sender);\r\n    }\r\n\r\n    function dispenseStakes() external onlyOwnerOrDispenser {\r\n        // iterate through pendingUnstakers list\r\n        uint256 numUnstakers = pendingUnstakers.length;\r\n        address unstaker;\r\n        uint256 unstakeAmount;\r\n        for(uint256 i; i < numUnstakers; ++i) {\r\n            unstaker = pendingUnstakers[i];\r\n            unstakeAmount = unstakedAmounts[unstaker];\r\n            stakedAmounts[unstaker] = stakedAmounts[unstaker] - unstakeAmount;\r\n            delete unstakedAmounts[unstaker];\r\n\r\n            // remove from staking list if user has 0 stake after unstaking\r\n            if (stakedAmounts[unstaker] == 0) stakers.remove(unstaker);\r\n\r\n            stakingToken.transfer(unstaker, unstakeAmount);\r\n            emit StakeDispensed(unstaker, unstakeAmount);\r\n        }\r\n        // finally, reset pendingUnstakers list\r\n        delete pendingUnstakers;\r\n    }\r\n\r\n    /// @param indices array of indices of bankruptAddresses in the pendingUnstaker array\r\n    /// value will be ignored if bankruptAddress has no pending unstakes\r\n    /// @dev indices to be of same length as bankruptAddresses\r\n    function bankruptStakers(\r\n        address bankruptciesReceiver,\r\n        address[] calldata bankruptAddresses,\r\n        uint256[] calldata indices\r\n    ) external onlyOwnerOrDispenser {\r\n        uint256 bankruptAddressesLength = bankruptAddresses.length;\r\n        require(bankruptAddressesLength == indices.length, \"length mismatch\");\r\n        address bankruptAddress;\r\n        uint256 stakedAmount;\r\n        for (uint i = 0; i < bankruptAddressesLength; ++i) {\r\n            bankruptAddress = bankruptAddresses[i];\r\n            stakedAmount = stakedAmounts[bankruptAddress];\r\n\r\n            // remove from pendingUnstaker list if bankruptAddress has a pending unstake\r\n            // subsequently zeroes unstakedAmounts mapping\r\n            if (unstakedAmounts[bankruptAddress] > 0) {\r\n                require(pendingUnstakers[indices[i]] == bankruptAddress, \"wrong index\");\r\n                pendingUnstakers[indices[i]] = pendingUnstakers[pendingUnstakers.length - 1];\r\n                pendingUnstakers.pop();\r\n                delete unstakedAmounts[bankruptAddress];\r\n            }\r\n\r\n            // remove from stakedAmounts mapping\r\n            delete stakedAmounts[bankruptAddress];\r\n\r\n            // remove from stakers list\r\n            stakers.remove(bankruptAddress);\r\n\r\n            // transfer stakedAmount to specified receiver address\r\n            stakingToken.transfer(bankruptciesReceiver, stakedAmount);\r\n            emit Bankrupt(bankruptAddress, stakedAmount);\r\n        }\r\n    }\r\n\r\n    function getNetStaked(address staker) public view returns (uint) {\r\n        return stakedAmounts[staker] - unstakedAmounts[staker];\r\n    }\r\n\r\n    function getAllNetStaked() external view returns (StakeInfo[] memory stakeInformation) {\r\n        uint256 numStakers = stakers.length();\r\n        stakeInformation = new StakeInfo[](numStakers);\r\n        address staker;\r\n        for(uint256 i; i < numStakers; ++i) {\r\n            staker = stakers.at(i);\r\n            stakeInformation[i] = StakeInfo({\r\n                staker: staker,\r\n                stakedAmount: getNetStaked(staker)\r\n            });\r\n        }\r\n    }\r\n\r\n    function delegateDispenser(address _addr) external onlyOwner {\r\n        grantRole(DISPENSER, _addr);\r\n    }\r\n\r\n    function revokeDispenser(address _addr) external onlyOwner {\r\n        revokeRole(DISPENSER, _addr);\r\n    }\r\n\r\n    function getPendingUnstakers() public view returns(address[] memory _pendingUnstakers) {\r\n        return pendingUnstakers;\r\n    }\r\n}\r\n",
  "sourcePath": "C:\\Users\\jcara\\Documents\\repos\\staking-polygon\\contracts\\CoveyStaking.sol",
  "compiler": {
    "name": "solc",
    "version": "0.8.17+commit.8df45f5f.Emscripten.clang"
  },
  "schemaVersion": "3.4.11",
  "updatedAt": "2023-01-13T15:43:39.804Z",
  "networkType": "ethereum",
  "devdoc": {
    "kind": "dev",
    "methods": {
      "bankruptStakers(address,address[],uint256[])": {
        "details": "indices to be of same length as bankruptAddresses",
        "params": {
          "indices": "array of indices of bankruptAddresses in the pendingUnstaker array value will be ignored if bankruptAddress has no pending unstakes"
        }
      },
      "cancelUnstake()": {
        "details": "iterates through pendingUnstakers, might run out of gas"
      },
      "cancelUnstake(uint256)": {
        "details": "more gas efficient by taking in the index to avoid iterating through pendingUnstakers"
      },
      "constructor": {
        "custom:oz-upgrades-unsafe-allow": "constructor"
      },
      "getRoleAdmin(bytes32)": {
        "details": "Returns the admin role that controls `role`. See {grantRole} and {revokeRole}. To change a role's admin, use {_setRoleAdmin}."
      },
      "grantRole(bytes32,address)": {
        "details": "Grants `role` to `account`. If `account` had not been already granted `role`, emits a {RoleGranted} event. Requirements: - the caller must have ``role``'s admin role. May emit a {RoleGranted} event."
      },
      "hasRole(bytes32,address)": {
        "details": "Returns `true` if `account` has been granted `role`."
      },
      "renounceRole(bytes32,address)": {
        "details": "Revokes `role` from the calling account. Roles are often managed via {grantRole} and {revokeRole}: this function's purpose is to provide a mechanism for accounts to lose their privileges if they are compromised (such as when a trusted device is misplaced). If the calling account had been revoked `role`, emits a {RoleRevoked} event. Requirements: - the caller must be `account`. May emit a {RoleRevoked} event."
      },
      "revokeRole(bytes32,address)": {
        "details": "Revokes `role` from `account`. If `account` had been granted `role`, emits a {RoleRevoked} event. Requirements: - the caller must have ``role``'s admin role. May emit a {RoleRevoked} event."
      },
      "supportsInterface(bytes4)": {
        "details": "See {IERC165-supportsInterface}."
      }
    },
    "version": 1
  },
  "userdoc": {
    "kind": "user",
    "methods": {},
    "version": 1
  }
}