{
  "contractName": "CoveyStaking",
  "abi": [
    {
      "inputs": [],
      "stateMutability": "nonpayable",
      "type": "constructor"
    },
    {
      "anonymous": false,
      "inputs": [
        {
          "indexed": true,
          "internalType": "address",
          "name": "_adr",
          "type": "address"
        },
        {
          "indexed": false,
          "internalType": "uint256",
          "name": "amountLost",
          "type": "uint256"
        }
      ],
      "name": "Bankrupt",
      "type": "event"
    },
    {
      "anonymous": false,
      "inputs": [
        {
          "indexed": true,
          "internalType": "address",
          "name": "_adr",
          "type": "address"
        }
      ],
      "name": "CancelledUnstake",
      "type": "event"
    },
    {
      "anonymous": false,
      "inputs": [
        {
          "indexed": false,
          "internalType": "uint8",
          "name": "version",
          "type": "uint8"
        }
      ],
      "name": "Initialized",
      "type": "event"
    },
    {
      "anonymous": false,
      "inputs": [
        {
          "indexed": true,
          "internalType": "bytes32",
          "name": "role",
          "type": "bytes32"
        },
        {
          "indexed": true,
          "internalType": "bytes32",
          "name": "previousAdminRole",
          "type": "bytes32"
        },
        {
          "indexed": true,
          "internalType": "bytes32",
          "name": "newAdminRole",
          "type": "bytes32"
        }
      ],
      "name": "RoleAdminChanged",
      "type": "event"
    },
    {
      "anonymous": false,
      "inputs": [
        {
          "indexed": true,
          "internalType": "bytes32",
          "name": "role",
          "type": "bytes32"
        },
        {
          "indexed": true,
          "internalType": "address",
          "name": "account",
          "type": "address"
        },
        {
          "indexed": true,
          "internalType": "address",
          "name": "sender",
          "type": "address"
        }
      ],
      "name": "RoleGranted",
      "type": "event"
    },
    {
      "anonymous": false,
      "inputs": [
        {
          "indexed": true,
          "internalType": "bytes32",
          "name": "role",
          "type": "bytes32"
        },
        {
          "indexed": true,
          "internalType": "address",
          "name": "account",
          "type": "address"
        },
        {
          "indexed": true,
          "internalType": "address",
          "name": "sender",
          "type": "address"
        }
      ],
      "name": "RoleRevoked",
      "type": "event"
    },
    {
      "anonymous": false,
      "inputs": [
        {
          "indexed": true,
          "internalType": "address",
          "name": "_adr",
          "type": "address"
        },
        {
          "indexed": false,
          "internalType": "uint256",
          "name": "amountDispensed",
          "type": "uint256"
        }
      ],
      "name": "StakeDispensed",
      "type": "event"
    },
    {
      "anonymous": false,
      "inputs": [
        {
          "indexed": true,
          "internalType": "address",
          "name": "_adr",
          "type": "address"
        },
        {
          "indexed": false,
          "internalType": "uint256",
          "name": "amount",
          "type": "uint256"
        },
        {
          "indexed": false,
          "internalType": "uint256",
          "name": "totalStakedAmount",
          "type": "uint256"
        }
      ],
      "name": "Staked",
      "type": "event"
    },
    {
      "anonymous": false,
      "inputs": [
        {
          "indexed": true,
          "internalType": "address",
          "name": "_adr",
          "type": "address"
        },
        {
          "indexed": false,
          "internalType": "uint256",
          "name": "amount",
          "type": "uint256"
        },
        {
          "indexed": false,
          "internalType": "uint256",
          "name": "totalUnstakedAmount",
          "type": "uint256"
        }
      ],
      "name": "Unstaked",
      "type": "event"
    },
    {
      "inputs": [],
      "name": "DEFAULT_ADMIN_ROLE",
      "outputs": [
        {
          "internalType": "bytes32",
          "name": "",
          "type": "bytes32"
        }
      ],
      "stateMutability": "view",
      "type": "function",
      "constant": true
    },
    {
      "inputs": [],
      "name": "DISPENSER",
      "outputs": [
        {
          "internalType": "bytes32",
          "name": "",
          "type": "bytes32"
        }
      ],
      "stateMutability": "view",
      "type": "function",
      "constant": true
    },
    {
      "inputs": [
        {
          "internalType": "bytes32",
          "name": "role",
          "type": "bytes32"
        }
      ],
      "name": "getRoleAdmin",
      "outputs": [
        {
          "internalType": "bytes32",
          "name": "",
          "type": "bytes32"
        }
      ],
      "stateMutability": "view",
      "type": "function",
      "constant": true
    },
    {
      "inputs": [
        {
          "internalType": "bytes32",
          "name": "role",
          "type": "bytes32"
        },
        {
          "internalType": "address",
          "name": "account",
          "type": "address"
        }
      ],
      "name": "grantRole",
      "outputs": [],
      "stateMutability": "nonpayable",
      "type": "function"
    },
    {
      "inputs": [
        {
          "internalType": "bytes32",
          "name": "role",
          "type": "bytes32"
        },
        {
          "internalType": "address",
          "name": "account",
          "type": "address"
        }
      ],
      "name": "hasRole",
      "outputs": [
        {
          "internalType": "bool",
          "name": "",
          "type": "bool"
        }
      ],
      "stateMutability": "view",
      "type": "function",
      "constant": true
    },
    {
      "inputs": [
        {
          "internalType": "uint256",
          "name": "",
          "type": "uint256"
        }
      ],
      "name": "pendingUnstakers",
      "outputs": [
        {
          "internalType": "address",
          "name": "",
          "type": "address"
        }
      ],
      "stateMutability": "view",
      "type": "function",
      "constant": true
    },
    {
      "inputs": [
        {
          "internalType": "bytes32",
          "name": "role",
          "type": "bytes32"
        },
        {
          "internalType": "address",
          "name": "account",
          "type": "address"
        }
      ],
      "name": "renounceRole",
      "outputs": [],
      "stateMutability": "nonpayable",
      "type": "function"
    },
    {
      "inputs": [
        {
          "internalType": "bytes32",
          "name": "role",
          "type": "bytes32"
        },
        {
          "internalType": "address",
          "name": "account",
          "type": "address"
        }
      ],
      "name": "revokeRole",
      "outputs": [],
      "stateMutability": "nonpayable",
      "type": "function"
    },
    {
      "inputs": [
        {
          "internalType": "address",
          "name": "",
          "type": "address"
        }
      ],
      "name": "stakedAmounts",
      "outputs": [
        {
          "internalType": "uint256",
          "name": "",
          "type": "uint256"
        }
      ],
      "stateMutability": "view",
      "type": "function",
      "constant": true
    },
    {
      "inputs": [],
      "name": "stakingToken",
      "outputs": [
        {
          "internalType": "contract IERC20",
          "name": "",
          "type": "address"
        }
      ],
      "stateMutability": "view",
      "type": "function",
      "constant": true
    },
    {
      "inputs": [
        {
          "internalType": "bytes4",
          "name": "interfaceId",
          "type": "bytes4"
        }
      ],
      "name": "supportsInterface",
      "outputs": [
        {
          "internalType": "bool",
          "name": "",
          "type": "bool"
        }
      ],
      "stateMutability": "view",
      "type": "function",
      "constant": true
    },
    {
      "inputs": [
        {
          "internalType": "address",
          "name": "",
          "type": "address"
        }
      ],
      "name": "unstakedAmounts",
      "outputs": [
        {
          "internalType": "uint256",
          "name": "",
          "type": "uint256"
        }
      ],
      "stateMutability": "view",
      "type": "function",
      "constant": true
    },
    {
      "inputs": [
        {
          "internalType": "contract IERC20",
          "name": "_stakingToken",
          "type": "address"
        }
      ],
      "name": "initialize",
      "outputs": [],
      "stateMutability": "nonpayable",
      "type": "function"
    },
    {
      "inputs": [
        {
          "internalType": "uint256",
          "name": "amount",
          "type": "uint256"
        }
      ],
      "name": "stake",
      "outputs": [],
      "stateMutability": "nonpayable",
      "type": "function"
    },
    {
      "inputs": [
        {
          "internalType": "uint256",
          "name": "amount",
          "type": "uint256"
        }
      ],
      "name": "unstake",
      "outputs": [],
      "stateMutability": "nonpayable",
      "type": "function"
    },
    {
      "inputs": [
        {
          "internalType": "uint256",
          "name": "index",
          "type": "uint256"
        }
      ],
      "name": "cancelUnstake",
      "outputs": [],
      "stateMutability": "nonpayable",
      "type": "function"
    },
    {
      "inputs": [],
      "name": "dispenseStakes",
      "outputs": [],
      "stateMutability": "nonpayable",
      "type": "function"
    },
    {
      "inputs": [
        {
          "internalType": "address",
          "name": "bankruptciesReceiver",
          "type": "address"
        },
        {
          "internalType": "address[]",
          "name": "bankruptAddresses",
          "type": "address[]"
        },
        {
          "internalType": "uint256[]",
          "name": "indices",
          "type": "uint256[]"
        }
      ],
      "name": "bankruptStakers",
      "outputs": [],
      "stateMutability": "nonpayable",
      "type": "function"
    },
    {
      "inputs": [
        {
          "internalType": "address",
          "name": "staker",
          "type": "address"
        }
      ],
      "name": "getNetStaked",
      "outputs": [
        {
          "internalType": "uint256",
          "name": "",
          "type": "uint256"
        }
      ],
      "stateMutability": "view",
      "type": "function",
      "constant": true
    },
    {
      "inputs": [],
      "name": "getAllNetStaked",
      "outputs": [
        {
          "components": [
            {
              "internalType": "address",
              "name": "staker",
              "type": "address"
            },
            {
              "internalType": "uint256",
              "name": "stakedAmount",
              "type": "uint256"
            }
          ],
          "internalType": "struct CoveyStaking.StakeInfo[]",
          "name": "stakeInformation",
          "type": "tuple[]"
        }
      ],
      "stateMutability": "view",
      "type": "function",
      "constant": true
    },
    {
      "inputs": [
        {
          "internalType": "address",
          "name": "_addr",
          "type": "address"
        }
      ],
      "name": "delegateDispenser",
      "outputs": [],
      "stateMutability": "nonpayable",
      "type": "function"
    },
    {
      "inputs": [
        {
          "internalType": "address",
          "name": "_addr",
          "type": "address"
        }
      ],
      "name": "revokeDispenser",
      "outputs": [],
      "stateMutability": "nonpayable",
      "type": "function"
    },
    {
      "inputs": [],
      "name": "getPendingUnstakers",
      "outputs": [
        {
          "internalType": "address[]",
          "name": "_pendingUnstakers",
          "type": "address[]"
        }
      ],
      "stateMutability": "view",
      "type": "function",
      "constant": true
    },
    {
      "inputs": [],
      "name": "getStakers",
      "outputs": [
        {
          "internalType": "address[]",
          "name": "_stakers",
          "type": "address[]"
        }
      ],
      "stateMutability": "view",
      "type": "function",
      "constant": true
    }
  ],
  "bytecode": "0x60806040523480156200001157600080fd5b50620000226200002860201b60201c565b620001d3565b600060019054906101000a900460ff16156200007b576040517f08c379a0000000000000000000000000000000000000000000000000000000008152600401620000729062000176565b60405180910390fd5b60ff801660008054906101000a900460ff1660ff161015620000ed5760ff6000806101000a81548160ff021916908360ff1602179055507f7f26b83ff96e1f2b6a682f133852f6798a09c465da95921460cefb384740249860ff604051620000e49190620001b6565b60405180910390a15b565b600082825260208201905092915050565b7f496e697469616c697a61626c653a20636f6e747261637420697320696e69746960008201527f616c697a696e6700000000000000000000000000000000000000000000000000602082015250565b60006200015e602783620000ef565b91506200016b8262000100565b604082019050919050565b6000602082019050818103600083015262000191816200014f565b9050919050565b600060ff82169050919050565b620001b08162000198565b82525050565b6000602082019050620001cd6000830184620001a5565b92915050565b61359a80620001e36000396000f3fe608060405234801561001057600080fd5b50600436106101585760003560e01c8063681a946e116100c3578063b2d1e58c1161007c578063b2d1e58c146103c3578063c4d66de8146103e1578063d547741f146103fd578063ded2e7da14610419578063e14cf1e414610449578063fbb83bf21461046757610158565b8063681a946e146102ef57806372f702f31461031f578063866c1f5f1461033d57806391d1485414610359578063a217fddf14610389578063a694fc3a146103a757610158565b80632f2ff15d116101155780632f2ff15d1461022f57806336568abe1461024b5780633bacd1b51461026757806343352d611461029757806362c9a371146102b55780636620f595146102d357610158565b806301ffc9a71461015d57806310c1c1031461018d57806322c49460146101bd578063248a9ca3146101c75780632b187b2b146101f75780632e17de7814610213575b600080fd5b61017760048036038101906101729190612470565b610483565b60405161018491906124b8565b60405180910390f35b6101a760048036038101906101a29190612531565b6104fd565b6040516101b49190612577565b60405180910390f35b6101c5610515565b005b6101e160048036038101906101dc91906125c8565b61086f565b6040516101ee9190612604565b60405180910390f35b610211600480360381019061020c919061264b565b61088f565b005b61022d6004803603810190610228919061264b565b610b39565b005b61024960048036038101906102449190612678565b610d50565b005b61026560048036038101906102609190612678565b610d71565b005b610281600480360381019061027c9190612531565b610df4565b60405161028e9190612577565b60405180910390f35b61029f610e0c565b6040516102ac9190612776565b60405180910390f35b6102bd610e1d565b6040516102ca9190612776565b60405180910390f35b6102ed60048036038101906102e89190612531565b610eab565b005b6103096004803603810190610304919061264b565b610f24565b60405161031691906127a7565b60405180910390f35b610327610f63565b6040516103349190612821565b60405180910390f35b61035760048036038101906103529190612531565b610f89565b005b610373600480360381019061036e9190612678565b611002565b60405161038091906124b8565b60405180910390f35b61039161106d565b60405161039e9190612604565b60405180910390f35b6103c160048036038101906103bc919061264b565b611074565b005b6103cb61126f565b6040516103d89190612604565b60405180910390f35b6103fb60048036038101906103f6919061287a565b611293565b005b61041760048036038101906104129190612678565b611420565b005b610433600480360381019061042e9190612531565b611441565b6040516104409190612577565b60405180910390f35b6104516114d4565b60405161045e9190612994565b60405180910390f35b610481600480360381019061047c9190612a71565b6115c4565b005b60007f7965db0b000000000000000000000000000000000000000000000000000000007bffffffffffffffffffffffffffffffffffffffffffffffffffffffff1916827bffffffffffffffffffffffffffffffffffffffffffffffffffffffff191614806104f657506104f582611ac8565b5b9050919050565b609b6020528060005260406000206000915090505481565b6105226000801b33611002565b8061055357506105527f6819d2896fa4833eb5158abc566f5567fa977a468f59c2b18ae25bfe434af5c333611002565b5b610592576040517f08c379a000000000000000000000000000000000000000000000000000000000815260040161058990612b63565b60405180910390fd5b6000609a80549050905060008060005b8381101561085b57609a81815481106105be576105bd612b83565b5b9060005260206000200160009054906101000a900473ffffffffffffffffffffffffffffffffffffffff169250609c60008473ffffffffffffffffffffffffffffffffffffffff1673ffffffffffffffffffffffffffffffffffffffff16815260200190815260200160002054915081609b60008573ffffffffffffffffffffffffffffffffffffffff1673ffffffffffffffffffffffffffffffffffffffff168152602001908152602001600020546106789190612be1565b609b60008573ffffffffffffffffffffffffffffffffffffffff1673ffffffffffffffffffffffffffffffffffffffff16815260200190815260200160002081905550609c60008473ffffffffffffffffffffffffffffffffffffffff1673ffffffffffffffffffffffffffffffffffffffff168152602001908152602001600020600090556000609b60008573ffffffffffffffffffffffffffffffffffffffff1673ffffffffffffffffffffffffffffffffffffffff168152602001908152602001600020540361075b57610759836098611b3290919063ffffffff16565b505b609760009054906101000a900473ffffffffffffffffffffffffffffffffffffffff1673ffffffffffffffffffffffffffffffffffffffff1663a9059cbb84846040518363ffffffff1660e01b81526004016107b8929190612c15565b6020604051808303816000875af11580156107d7573d6000803e3d6000fd5b505050506040513d601f19601f820116820180604052508101906107fb9190612c6a565b508273ffffffffffffffffffffffffffffffffffffffff167f9b4c90d41aa819dadecbb2e126e6dc2e01be4402acc99ec60248131a3f59576c836040516108429190612577565b60405180910390a28061085490612c97565b90506105a2565b50609a600061086a91906123a0565b505050565b600060656000838152602001908152602001600020600101549050919050565b6000609c60003373ffffffffffffffffffffffffffffffffffffffff1673ffffffffffffffffffffffffffffffffffffffff1681526020019081526020016000205411610911576040517f08c379a000000000000000000000000000000000000000000000000000000000815260040161090890612d2b565b60405180910390fd5b609c60003373ffffffffffffffffffffffffffffffffffffffff1673ffffffffffffffffffffffffffffffffffffffff168152602001908152602001600020600090553373ffffffffffffffffffffffffffffffffffffffff16609a828154811061097f5761097e612b83565b5b9060005260206000200160009054906101000a900473ffffffffffffffffffffffffffffffffffffffff1673ffffffffffffffffffffffffffffffffffffffff1614610a00576040517f08c379a00000000000000000000000000000000000000000000000000000000081526004016109f790612d97565b60405180910390fd5b609a6001609a80549050610a149190612be1565b81548110610a2557610a24612b83565b5b9060005260206000200160009054906101000a900473ffffffffffffffffffffffffffffffffffffffff16609a8281548110610a6457610a63612b83565b5b9060005260206000200160006101000a81548173ffffffffffffffffffffffffffffffffffffffff021916908373ffffffffffffffffffffffffffffffffffffffff160217905550609a805480610abe57610abd612db7565b5b6001900381819060005260206000200160006101000a81549073ffffffffffffffffffffffffffffffffffffffff021916905590553373ffffffffffffffffffffffffffffffffffffffff167f450cc0f663f8ded0053aeca240ef53a2f4b93c5c3aa067e8e45155e823ceaa7a60405160405180910390a250565b60008103610b7c576040517f08c379a0000000000000000000000000000000000000000000000000000000008152600401610b7390612e32565b60405180910390fd5b600081609c60003373ffffffffffffffffffffffffffffffffffffffff1673ffffffffffffffffffffffffffffffffffffffff16815260200190815260200160002054610bc99190612e52565b905080609b60003373ffffffffffffffffffffffffffffffffffffffff1673ffffffffffffffffffffffffffffffffffffffff168152602001908152602001600020541015610c4d576040517f08c379a0000000000000000000000000000000000000000000000000000000008152600401610c4490612ed2565b60405180910390fd5b818103610cb857609a339080600181540180825580915050600190039060005260206000200160009091909190916101000a81548173ffffffffffffffffffffffffffffffffffffffff021916908373ffffffffffffffffffffffffffffffffffffffff1602179055505b80609c60003373ffffffffffffffffffffffffffffffffffffffff1673ffffffffffffffffffffffffffffffffffffffff168152602001908152602001600020819055503373ffffffffffffffffffffffffffffffffffffffff167f7fc4727e062e336010f2c282598ef5f14facb3de68cf8195c2f23e1454b2b74e8383604051610d44929190612ef2565b60405180910390a25050565b610d598261086f565b610d6281611b62565b610d6c8383611b76565b505050565b610d79611c57565b73ffffffffffffffffffffffffffffffffffffffff168173ffffffffffffffffffffffffffffffffffffffff1614610de6576040517f08c379a0000000000000000000000000000000000000000000000000000000008152600401610ddd90612f8d565b60405180910390fd5b610df08282611c5f565b5050565b609c6020528060005260406000206000915090505481565b6060610e186098611d41565b905090565b6060609a805480602002602001604051908101604052809291908181526020018280548015610ea157602002820191906000526020600020905b8160009054906101000a900473ffffffffffffffffffffffffffffffffffffffff1673ffffffffffffffffffffffffffffffffffffffff1681526020019060010190808311610e57575b5050505050905090565b610eb86000801b33611002565b610ef7576040517f08c379a0000000000000000000000000000000000000000000000000000000008152600401610eee90612ff9565b60405180910390fd5b610f217f6819d2896fa4833eb5158abc566f5567fa977a468f59c2b18ae25bfe434af5c382610d50565b50565b609a8181548110610f3457600080fd5b906000526020600020016000915054906101000a900473ffffffffffffffffffffffffffffffffffffffff1681565b609760009054906101000a900473ffffffffffffffffffffffffffffffffffffffff1681565b610f966000801b33611002565b610fd5576040517f08c379a0000000000000000000000000000000000000000000000000000000008152600401610fcc90612ff9565b60405180910390fd5b610fff7f6819d2896fa4833eb5158abc566f5567fa977a468f59c2b18ae25bfe434af5c382611420565b50565b60006065600084815260200190815260200160002060000160008373ffffffffffffffffffffffffffffffffffffffff1673ffffffffffffffffffffffffffffffffffffffff16815260200190815260200160002060009054906101000a900460ff16905092915050565b6000801b81565b600081036110b7576040517f08c379a00000000000000000000000000000000000000000000000000000000081526004016110ae90612e32565b60405180910390fd5b609760009054906101000a900473ffffffffffffffffffffffffffffffffffffffff1673ffffffffffffffffffffffffffffffffffffffff166323b872dd3330846040518463ffffffff1660e01b815260040161111693929190613019565b6020604051808303816000875af1158015611135573d6000803e3d6000fd5b505050506040513d601f19601f820116820180604052508101906111599190612c6a565b5061116e336098611d6290919063ffffffff16565b61118857611186336098611d9290919063ffffffff16565b505b600081609b60003373ffffffffffffffffffffffffffffffffffffffff1673ffffffffffffffffffffffffffffffffffffffff168152602001908152602001600020546111d59190612e52565b905080609b60003373ffffffffffffffffffffffffffffffffffffffff1673ffffffffffffffffffffffffffffffffffffffff168152602001908152602001600020819055503373ffffffffffffffffffffffffffffffffffffffff167f1449c6dd7851abc30abf37f57715f492010519147cc2652fbc38202c18a6ee908383604051611263929190612ef2565b60405180910390a25050565b7f6819d2896fa4833eb5158abc566f5567fa977a468f59c2b18ae25bfe434af5c381565b60008060019054906101000a900460ff161590508080156112c45750600160008054906101000a900460ff1660ff16105b806112f157506112d330611dc2565b1580156112f05750600160008054906101000a900460ff1660ff16145b5b611330576040517f08c379a0000000000000000000000000000000000000000000000000000000008152600401611327906130c2565b60405180910390fd5b60016000806101000a81548160ff021916908360ff160217905550801561136d576001600060016101000a81548160ff0219169083151502179055505b611375611de5565b81609760006101000a81548173ffffffffffffffffffffffffffffffffffffffff021916908373ffffffffffffffffffffffffffffffffffffffff1602179055506113c36000801b33611e36565b801561141c5760008060016101000a81548160ff0219169083151502179055507f7f26b83ff96e1f2b6a682f133852f6798a09c465da95921460cefb38474024986001604051611413919061312a565b60405180910390a15b5050565b6114298261086f565b61143281611b62565b61143c8383611c5f565b505050565b6000609c60008373ffffffffffffffffffffffffffffffffffffffff1673ffffffffffffffffffffffffffffffffffffffff16815260200190815260200160002054609b60008473ffffffffffffffffffffffffffffffffffffffff1673ffffffffffffffffffffffffffffffffffffffff168152602001908152602001600020546114cd9190612be1565b9050919050565b606060006114e26098611e44565b90508067ffffffffffffffff8111156114fe576114fd613145565b5b60405190808252806020026020018201604052801561153757816020015b6115246123c1565b81526020019060019003908161151c5790505b5091506000805b828110156115be5761155a816098611e5990919063ffffffff16565b915060405180604001604052808373ffffffffffffffffffffffffffffffffffffffff16815260200161158c84611441565b8152508482815181106115a2576115a1612b83565b5b6020026020010181905250806115b790612c97565b905061153e565b50505090565b6115d16000801b33611002565b8061160257506116017f6819d2896fa4833eb5158abc566f5567fa977a468f59c2b18ae25bfe434af5c333611002565b5b611641576040517f08c379a000000000000000000000000000000000000000000000000000000000815260040161163890612b63565b60405180910390fd5b600084849050905082829050811461168e576040517f08c379a0000000000000000000000000000000000000000000000000000000008152600401611685906131c0565b60405180910390fd5b60008060005b83811015611abd578787828181106116af576116ae612b83565b5b90506020020160208101906116c49190612531565b9250609b60008473ffffffffffffffffffffffffffffffffffffffff1673ffffffffffffffffffffffffffffffffffffffff1681526020019081526020016000205491506000609c60008573ffffffffffffffffffffffffffffffffffffffff1673ffffffffffffffffffffffffffffffffffffffff168152602001908152602001600020541115611965578273ffffffffffffffffffffffffffffffffffffffff16609a87878481811061177c5761177b612b83565b5b905060200201358154811061179457611793612b83565b5b9060005260206000200160009054906101000a900473ffffffffffffffffffffffffffffffffffffffff1673ffffffffffffffffffffffffffffffffffffffff1614611815576040517f08c379a000000000000000000000000000000000000000000000000000000000815260040161180c9061322c565b60405180910390fd5b609a6001609a805490506118299190612be1565b8154811061183a57611839612b83565b5b9060005260206000200160009054906101000a900473ffffffffffffffffffffffffffffffffffffffff16609a87878481811061187a57611879612b83565b5b905060200201358154811061189257611891612b83565b5b9060005260206000200160006101000a81548173ffffffffffffffffffffffffffffffffffffffff021916908373ffffffffffffffffffffffffffffffffffffffff160217905550609a8054806118ec576118eb612db7565b5b6001900381819060005260206000200160006101000a81549073ffffffffffffffffffffffffffffffffffffffff02191690559055609c60008473ffffffffffffffffffffffffffffffffffffffff1673ffffffffffffffffffffffffffffffffffffffff168152602001908152602001600020600090555b609b60008473ffffffffffffffffffffffffffffffffffffffff1673ffffffffffffffffffffffffffffffffffffffff168152602001908152602001600020600090556119bc836098611b3290919063ffffffff16565b50609760009054906101000a900473ffffffffffffffffffffffffffffffffffffffff1673ffffffffffffffffffffffffffffffffffffffff1663a9059cbb8a846040518363ffffffff1660e01b8152600401611a1a929190612c15565b6020604051808303816000875af1158015611a39573d6000803e3d6000fd5b505050506040513d601f19601f82011682018060405250810190611a5d9190612c6a565b508273ffffffffffffffffffffffffffffffffffffffff167f7fe451685bab7a17da665cc038b4635412b8d788bb692963f88e35eba15ae17583604051611aa49190612577565b60405180910390a280611ab690612c97565b9050611694565b505050505050505050565b60007f01ffc9a7000000000000000000000000000000000000000000000000000000007bffffffffffffffffffffffffffffffffffffffffffffffffffffffff1916827bffffffffffffffffffffffffffffffffffffffffffffffffffffffff1916149050919050565b6000611b5a836000018373ffffffffffffffffffffffffffffffffffffffff1660001b611e73565b905092915050565b611b7381611b6e611c57565b611f87565b50565b611b808282611002565b611c535760016065600084815260200190815260200160002060000160008373ffffffffffffffffffffffffffffffffffffffff1673ffffffffffffffffffffffffffffffffffffffff16815260200190815260200160002060006101000a81548160ff021916908315150217905550611bf8611c57565b73ffffffffffffffffffffffffffffffffffffffff168173ffffffffffffffffffffffffffffffffffffffff16837f2f8788117e7eff1d82e926ec794901d17c78024a50270940304540a733656f0d60405160405180910390a45b5050565b600033905090565b611c698282611002565b15611d3d5760006065600084815260200190815260200160002060000160008373ffffffffffffffffffffffffffffffffffffffff1673ffffffffffffffffffffffffffffffffffffffff16815260200190815260200160002060006101000a81548160ff021916908315150217905550611ce2611c57565b73ffffffffffffffffffffffffffffffffffffffff168173ffffffffffffffffffffffffffffffffffffffff16837ff6391f5c32d9c69d2a47ea670b442974b53935d1edc7fd64eb21e047a839171b60405160405180910390a45b5050565b60606000611d518360000161200c565b905060608190508092505050919050565b6000611d8a836000018373ffffffffffffffffffffffffffffffffffffffff1660001b612068565b905092915050565b6000611dba836000018373ffffffffffffffffffffffffffffffffffffffff1660001b61208b565b905092915050565b6000808273ffffffffffffffffffffffffffffffffffffffff163b119050919050565b600060019054906101000a900460ff16611e34576040517f08c379a0000000000000000000000000000000000000000000000000000000008152600401611e2b906132be565b60405180910390fd5b565b611e408282611b76565b5050565b6000611e52826000016120fb565b9050919050565b6000611e68836000018361210c565b60001c905092915050565b60008083600101600084815260200190815260200160002054905060008114611f7b576000600182611ea59190612be1565b9050600060018660000180549050611ebd9190612be1565b9050818114611f2c576000866000018281548110611ede57611edd612b83565b5b9060005260206000200154905080876000018481548110611f0257611f01612b83565b5b90600052602060002001819055508387600101600083815260200190815260200160002081905550505b85600001805480611f4057611f3f612db7565b5b600190038181906000526020600020016000905590558560010160008681526020019081526020016000206000905560019350505050611f81565b60009150505b92915050565b611f918282611002565b61200857611f9e81612137565b611fac8360001c6020612164565b604051602001611fbd9291906133e7565b6040516020818303038152906040526040517f08c379a0000000000000000000000000000000000000000000000000000000008152600401611fff919061346b565b60405180910390fd5b5050565b60608160000180548060200260200160405190810160405280929190818152602001828054801561205c57602002820191906000526020600020905b815481526020019060010190808311612048575b50505050509050919050565b600080836001016000848152602001908152602001600020541415905092915050565b60006120978383612068565b6120f05782600001829080600181540180825580915050600190039060005260206000200160009091909190915055826000018054905083600101600084815260200190815260200160002081905550600190506120f5565b600090505b92915050565b600081600001805490509050919050565b600082600001828154811061212457612123612b83565b5b9060005260206000200154905092915050565b606061215d8273ffffffffffffffffffffffffffffffffffffffff16601460ff16612164565b9050919050565b606060006002836002612177919061348d565b6121819190612e52565b67ffffffffffffffff81111561219a57612199613145565b5b6040519080825280601f01601f1916602001820160405280156121cc5781602001600182028036833780820191505090505b5090507f30000000000000000000000000000000000000000000000000000000000000008160008151811061220457612203612b83565b5b60200101907effffffffffffffffffffffffffffffffffffffffffffffffffffffffffffff1916908160001a9053507f78000000000000000000000000000000000000000000000000000000000000008160018151811061226857612267612b83565b5b60200101907effffffffffffffffffffffffffffffffffffffffffffffffffffffffffffff1916908160001a905350600060018460026122a8919061348d565b6122b29190612e52565b90505b6001811115612352577f3031323334353637383961626364656600000000000000000000000000000000600f8616601081106122f4576122f3612b83565b5b1a60f81b82828151811061230b5761230a612b83565b5b60200101907effffffffffffffffffffffffffffffffffffffffffffffffffffffffffffff1916908160001a905350600485901c94508061234b906134cf565b90506122b5565b5060008414612396576040517f08c379a000000000000000000000000000000000000000000000000000000000815260040161238d90613544565b60405180910390fd5b8091505092915050565b50805460008255906000526020600020908101906123be91906123f1565b50565b6040518060400160405280600073ffffffffffffffffffffffffffffffffffffffff168152602001600081525090565b5b8082111561240a5760008160009055506001016123f2565b5090565b600080fd5b600080fd5b60007fffffffff0000000000000000000000000000000000000000000000000000000082169050919050565b61244d81612418565b811461245857600080fd5b50565b60008135905061246a81612444565b92915050565b6000602082840312156124865761248561240e565b5b60006124948482850161245b565b91505092915050565b60008115159050919050565b6124b28161249d565b82525050565b60006020820190506124cd60008301846124a9565b92915050565b600073ffffffffffffffffffffffffffffffffffffffff82169050919050565b60006124fe826124d3565b9050919050565b61250e816124f3565b811461251957600080fd5b50565b60008135905061252b81612505565b92915050565b6000602082840312156125475761254661240e565b5b60006125558482850161251c565b91505092915050565b6000819050919050565b6125718161255e565b82525050565b600060208201905061258c6000830184612568565b92915050565b6000819050919050565b6125a581612592565b81146125b057600080fd5b50565b6000813590506125c28161259c565b92915050565b6000602082840312156125de576125dd61240e565b5b60006125ec848285016125b3565b91505092915050565b6125fe81612592565b82525050565b600060208201905061261960008301846125f5565b92915050565b6126288161255e565b811461263357600080fd5b50565b6000813590506126458161261f565b92915050565b6000602082840312156126615761266061240e565b5b600061266f84828501612636565b91505092915050565b6000806040838503121561268f5761268e61240e565b5b600061269d858286016125b3565b92505060206126ae8582860161251c565b9150509250929050565b600081519050919050565b600082825260208201905092915050565b6000819050602082019050919050565b6126ed816124f3565b82525050565b60006126ff83836126e4565b60208301905092915050565b6000602082019050919050565b6000612723826126b8565b61272d81856126c3565b9350612738836126d4565b8060005b8381101561276957815161275088826126f3565b975061275b8361270b565b92505060018101905061273c565b5085935050505092915050565b600060208201905081810360008301526127908184612718565b905092915050565b6127a1816124f3565b82525050565b60006020820190506127bc6000830184612798565b92915050565b6000819050919050565b60006127e76127e26127dd846124d3565b6127c2565b6124d3565b9050919050565b60006127f9826127cc565b9050919050565b600061280b826127ee565b9050919050565b61281b81612800565b82525050565b60006020820190506128366000830184612812565b92915050565b6000612847826124f3565b9050919050565b6128578161283c565b811461286257600080fd5b50565b6000813590506128748161284e565b92915050565b6000602082840312156128905761288f61240e565b5b600061289e84828501612865565b91505092915050565b600081519050919050565b600082825260208201905092915050565b6000819050602082019050919050565b6128dc8161255e565b82525050565b6040820160008201516128f860008501826126e4565b50602082015161290b60208501826128d3565b50505050565b600061291d83836128e2565b60408301905092915050565b6000602082019050919050565b6000612941826128a7565b61294b81856128b2565b9350612956836128c3565b8060005b8381101561298757815161296e8882612911565b975061297983612929565b92505060018101905061295a565b5085935050505092915050565b600060208201905081810360008301526129ae8184612936565b905092915050565b600080fd5b600080fd5b600080fd5b60008083601f8401126129db576129da6129b6565b5b8235905067ffffffffffffffff8111156129f8576129f76129bb565b5b602083019150836020820283011115612a1457612a136129c0565b5b9250929050565b60008083601f840112612a3157612a306129b6565b5b8235905067ffffffffffffffff811115612a4e57612a4d6129bb565b5b602083019150836020820283011115612a6a57612a696129c0565b5b9250929050565b600080600080600060608688031215612a8d57612a8c61240e565b5b6000612a9b8882890161251c565b955050602086013567ffffffffffffffff811115612abc57612abb612413565b5b612ac8888289016129c5565b9450945050604086013567ffffffffffffffff811115612aeb57612aea612413565b5b612af788828901612a1b565b92509250509295509295909350565b600082825260208201905092915050565b7f4f6e6c79206f776e6572206f722064697370656e736572000000000000000000600082015250565b6000612b4d601783612b06565b9150612b5882612b17565b602082019050919050565b60006020820190508181036000830152612b7c81612b40565b9050919050565b7f4e487b7100000000000000000000000000000000000000000000000000000000600052603260045260246000fd5b7f4e487b7100000000000000000000000000000000000000000000000000000000600052601160045260246000fd5b6000612bec8261255e565b9150612bf78361255e565b9250828203905081811115612c0f57612c0e612bb2565b5b92915050565b6000604082019050612c2a6000830185612798565b612c376020830184612568565b9392505050565b612c478161249d565b8114612c5257600080fd5b50565b600081519050612c6481612c3e565b92915050565b600060208284031215612c8057612c7f61240e565b5b6000612c8e84828501612c55565b91505092915050565b6000612ca28261255e565b91507fffffffffffffffffffffffffffffffffffffffffffffffffffffffffffffffff8203612cd457612cd3612bb2565b5b600182019050919050565b7f3020756e7374616b650000000000000000000000000000000000000000000000600082015250565b6000612d15600983612b06565b9150612d2082612cdf565b602082019050919050565b60006020820190508181036000830152612d4481612d08565b9050919050565b7f57726f6e6720696e646578000000000000000000000000000000000000000000600082015250565b6000612d81600b83612b06565b9150612d8c82612d4b565b602082019050919050565b60006020820190508181036000830152612db081612d74565b9050919050565b7f4e487b7100000000000000000000000000000000000000000000000000000000600052603160045260246000fd5b7f3020616d6f756e74000000000000000000000000000000000000000000000000600082015250565b6000612e1c600883612b06565b9150612e2782612de6565b602082019050919050565b60006020820190508181036000830152612e4b81612e0f565b9050919050565b6000612e5d8261255e565b9150612e688361255e565b9250828201905080821115612e8057612e7f612bb2565b5b92915050565b7f556e7374616b696e6720746f6f206c6172676500000000000000000000000000600082015250565b6000612ebc601383612b06565b9150612ec782612e86565b602082019050919050565b60006020820190508181036000830152612eeb81612eaf565b9050919050565b6000604082019050612f076000830185612568565b612f146020830184612568565b9392505050565b7f416363657373436f6e74726f6c3a2063616e206f6e6c792072656e6f756e636560008201527f20726f6c657320666f722073656c660000000000000000000000000000000000602082015250565b6000612f77602f83612b06565b9150612f8282612f1b565b604082019050919050565b60006020820190508181036000830152612fa681612f6a565b9050919050565b7f4e6f74206f776e65720000000000000000000000000000000000000000000000600082015250565b6000612fe3600983612b06565b9150612fee82612fad565b602082019050919050565b6000602082019050818103600083015261301281612fd6565b9050919050565b600060608201905061302e6000830186612798565b61303b6020830185612798565b6130486040830184612568565b949350505050565b7f496e697469616c697a61626c653a20636f6e747261637420697320616c72656160008201527f647920696e697469616c697a6564000000000000000000000000000000000000602082015250565b60006130ac602e83612b06565b91506130b782613050565b604082019050919050565b600060208201905081810360008301526130db8161309f565b9050919050565b6000819050919050565b600060ff82169050919050565b600061311461310f61310a846130e2565b6127c2565b6130ec565b9050919050565b613124816130f9565b82525050565b600060208201905061313f600083018461311b565b92915050565b7f4e487b7100000000000000000000000000000000000000000000000000000000600052604160045260246000fd5b7f6c656e677468206d69736d617463680000000000000000000000000000000000600082015250565b60006131aa600f83612b06565b91506131b582613174565b602082019050919050565b600060208201905081810360008301526131d98161319d565b9050919050565b7f77726f6e6720696e646578000000000000000000000000000000000000000000600082015250565b6000613216600b83612b06565b9150613221826131e0565b602082019050919050565b6000602082019050818103600083015261324581613209565b9050919050565b7f496e697469616c697a61626c653a20636f6e7472616374206973206e6f74206960008201527f6e697469616c697a696e67000000000000000000000000000000000000000000602082015250565b60006132a8602b83612b06565b91506132b38261324c565b604082019050919050565b600060208201905081810360008301526132d78161329b565b9050919050565b600081905092915050565b7f416363657373436f6e74726f6c3a206163636f756e7420000000000000000000600082015250565b600061331f6017836132de565b915061332a826132e9565b601782019050919050565b600081519050919050565b60005b8381101561335e578082015181840152602081019050613343565b60008484015250505050565b600061337582613335565b61337f81856132de565b935061338f818560208601613340565b80840191505092915050565b7f206973206d697373696e6720726f6c6520000000000000000000000000000000600082015250565b60006133d16011836132de565b91506133dc8261339b565b601182019050919050565b60006133f282613312565b91506133fe828561336a565b9150613409826133c4565b9150613415828461336a565b91508190509392505050565b6000601f19601f8301169050919050565b600061343d82613335565b6134478185612b06565b9350613457818560208601613340565b61346081613421565b840191505092915050565b600060208201905081810360008301526134858184613432565b905092915050565b60006134988261255e565b91506134a38361255e565b92508282026134b18161255e565b915082820484148315176134c8576134c7612bb2565b5b5092915050565b60006134da8261255e565b9150600082036134ed576134ec612bb2565b5b600182039050919050565b7f537472696e67733a20686578206c656e67746820696e73756666696369656e74600082015250565b600061352e602083612b06565b9150613539826134f8565b602082019050919050565b6000602082019050818103600083015261355d81613521565b905091905056fea2646970667358221220cc2747fffbe64521c7c3dcd0de82e7efe4cee8b244f746eafe30fd0f0a35c89e64736f6c63430008110033",
  "immutableReferences": {},
  "source": "// contracts/CoveyStaking.sol\r\n// SPDX-License-Identifier: MIT\r\npragma solidity ^0.8.9;\r\n\r\nimport '@openzeppelin/contracts-upgradeable/proxy/utils/Initializable.sol';\r\nimport '@openzeppelin/contracts/token/ERC20/IERC20.sol';\r\nimport \"@openzeppelin/contracts-upgradeable/access/AccessControlUpgradeable.sol\";\r\nimport \"@openzeppelin/contracts-upgradeable/utils/structs/EnumerableSetUpgradeable.sol\";\r\n\r\ncontract CoveyStaking is Initializable, AccessControlUpgradeable {\r\n    using EnumerableSetUpgradeable for EnumerableSetUpgradeable.AddressSet;\r\n\r\n    bytes32 public constant DISPENSER = keccak256(\"DISPENSER\");\r\n    IERC20 public stakingToken;\r\n    struct StakeInfo {\r\n      address staker;\r\n      uint256 stakedAmount;\r\n    }\r\n    EnumerableSetUpgradeable.AddressSet internal stakers;\r\n    address[] public pendingUnstakers;\r\n\r\n    mapping(address => uint256) public stakedAmounts;\r\n    mapping(address => uint256) public unstakedAmounts;\r\n\r\n    event Staked(address indexed _adr, uint256 amount, uint256 totalStakedAmount);\r\n    \r\n    event Unstaked(address indexed _adr, uint256 amount, uint256 totalUnstakedAmount);\r\n\r\n    event CancelledUnstake(address indexed _adr);\r\n\r\n    event Bankrupt(address indexed _adr, uint256 amountLost);\r\n\r\n    event StakeDispensed(address indexed _adr, uint256 amountDispensed);\r\n\r\n    modifier onlyOwner {\r\n        require(hasRole(DEFAULT_ADMIN_ROLE, msg.sender), \"Not owner\");\r\n        _;\r\n    }\r\n\r\n    modifier onlyOwnerOrDispenser {\r\n        require(\r\n            hasRole(DEFAULT_ADMIN_ROLE, msg.sender) ||\r\n            hasRole(DISPENSER, msg.sender),\r\n            \"Only owner or dispenser\"\r\n        );\r\n        _;\r\n    }\r\n\r\n    /// @custom:oz-upgrades-unsafe-allow constructor\r\n    constructor() {\r\n        _disableInitializers();\r\n    }\r\n\r\n    function initialize(IERC20 _stakingToken) public initializer {\r\n        __AccessControl_init();\r\n        stakingToken = _stakingToken;\r\n        _setupRole(DEFAULT_ADMIN_ROLE, msg.sender);\r\n    }\r\n\r\n    function stake(uint256 amount) external {\r\n        require(amount != 0, \"0 amount\");\r\n        stakingToken.transferFrom(msg.sender, address(this), amount);\r\n        // if recognised as first time staker, push to staker list\r\n        if (!stakers.contains(msg.sender)) stakers.add(msg.sender);\r\n        uint256 totalStakedAmount = stakedAmounts[msg.sender] + amount;\r\n        stakedAmounts[msg.sender] = totalStakedAmount;\r\n        emit Staked(msg.sender, amount, totalStakedAmount);\r\n    }\r\n\r\n    function unstake(uint256 amount) external {\r\n        require(amount != 0, \"0 amount\");\r\n        uint256 totalUnstakedAmount = unstakedAmounts[msg.sender] + amount;\r\n        require(stakedAmounts[msg.sender] >= totalUnstakedAmount, \"Unstaking too large\");\r\n        // add to pending unstaker list\r\n        // if user unstaking for first time since dispenseStakes() was called\r\n        // checking (totalUnstakedAmount == amount) instead of (unstakedAmounts[msg.sender] == 0)\r\n        // is more gas efficient because it avoids an SLOAD\r\n        if (totalUnstakedAmount == amount) {\r\n            pendingUnstakers.push(msg.sender);\r\n        }\r\n        unstakedAmounts[msg.sender] = totalUnstakedAmount;\r\n        emit Unstaked(msg.sender, amount, totalUnstakedAmount);\r\n    }\r\n\r\n\r\n    /// @dev more gas efficient by taking in the index to avoid iterating through pendingUnstakers\r\n    function cancelUnstake(uint256 index) external {\r\n        require(unstakedAmounts[msg.sender] > 0, \"0 unstake\");\r\n        delete unstakedAmounts[msg.sender];\r\n        require(pendingUnstakers[index] == msg.sender, \"Wrong index\");\r\n        pendingUnstakers[index] = pendingUnstakers[pendingUnstakers.length - 1];\r\n        pendingUnstakers.pop();\r\n        emit CancelledUnstake(msg.sender);\r\n    }\r\n\r\n    function dispenseStakes() external onlyOwnerOrDispenser {\r\n        // iterate through pendingUnstakers list\r\n        uint256 numUnstakers = pendingUnstakers.length;\r\n        address unstaker;\r\n        uint256 unstakeAmount;\r\n        for(uint256 i; i < numUnstakers; ++i) {\r\n            unstaker = pendingUnstakers[i];\r\n            unstakeAmount = unstakedAmounts[unstaker];\r\n            stakedAmounts[unstaker] = stakedAmounts[unstaker] - unstakeAmount;\r\n            delete unstakedAmounts[unstaker];\r\n\r\n            // remove from staking list if user has 0 stake after unstaking\r\n            if (stakedAmounts[unstaker] == 0) stakers.remove(unstaker);\r\n\r\n            stakingToken.transfer(unstaker, unstakeAmount);\r\n            emit StakeDispensed(unstaker, unstakeAmount);\r\n        }\r\n        // finally, reset pendingUnstakers list\r\n        delete pendingUnstakers;\r\n    }\r\n\r\n    /// @param indices array of indices of bankruptAddresses in the pendingUnstaker array\r\n    /// value will be ignored if bankruptAddress has no pending unstakes\r\n    /// @dev indices to be of same length as bankruptAddresses\r\n    function bankruptStakers(\r\n        address bankruptciesReceiver,\r\n        address[] calldata bankruptAddresses,\r\n        uint256[] calldata indices\r\n    ) external onlyOwnerOrDispenser {\r\n        uint256 bankruptAddressesLength = bankruptAddresses.length;\r\n        require(bankruptAddressesLength == indices.length, \"length mismatch\");\r\n        address bankruptAddress;\r\n        uint256 stakedAmount;\r\n        for (uint i = 0; i < bankruptAddressesLength; ++i) {\r\n            bankruptAddress = bankruptAddresses[i];\r\n            stakedAmount = stakedAmounts[bankruptAddress];\r\n\r\n            // remove from pendingUnstaker list if bankruptAddress has a pending unstake\r\n            // subsequently zeroes unstakedAmounts mapping\r\n            if (unstakedAmounts[bankruptAddress] > 0) {\r\n                require(pendingUnstakers[indices[i]] == bankruptAddress, \"wrong index\");\r\n                pendingUnstakers[indices[i]] = pendingUnstakers[pendingUnstakers.length - 1];\r\n                pendingUnstakers.pop();\r\n                delete unstakedAmounts[bankruptAddress];\r\n            }\r\n\r\n            // remove from stakedAmounts mapping\r\n            delete stakedAmounts[bankruptAddress];\r\n\r\n            // remove from stakers list\r\n            stakers.remove(bankruptAddress);\r\n\r\n            // transfer stakedAmount to specified receiver address\r\n            stakingToken.transfer(bankruptciesReceiver, stakedAmount);\r\n            emit Bankrupt(bankruptAddress, stakedAmount);\r\n        }\r\n    }\r\n\r\n    function getNetStaked(address staker) public view returns (uint) {\r\n        return stakedAmounts[staker] - unstakedAmounts[staker];\r\n    }\r\n\r\n    function getAllNetStaked() external view returns (StakeInfo[] memory stakeInformation) {\r\n        uint256 numStakers = stakers.length();\r\n        stakeInformation = new StakeInfo[](numStakers);\r\n        address staker;\r\n        for(uint256 i; i < numStakers; ++i) {\r\n            staker = stakers.at(i);\r\n            stakeInformation[i] = StakeInfo({\r\n                staker: staker,\r\n                stakedAmount: getNetStaked(staker)\r\n            });\r\n        }\r\n    }\r\n\r\n    function delegateDispenser(address _addr) external onlyOwner {\r\n        grantRole(DISPENSER, _addr);\r\n    }\r\n\r\n    function revokeDispenser(address _addr) external onlyOwner {\r\n        revokeRole(DISPENSER, _addr);\r\n    }\r\n\r\n    function getPendingUnstakers() public view returns(address[] memory _pendingUnstakers) {\r\n        return pendingUnstakers;\r\n    }\r\n\r\n    function getStakers() public view returns(address[] memory  _stakers) {\r\n        return stakers.values();\r\n    }\r\n}\r\n",
  "sourcePath": "C:\\Users\\jcara\\Documents\\repos\\staking-polygon\\contracts\\CoveyStaking.sol",
  "compiler": {
    "name": "solc",
    "version": "0.8.17+commit.8df45f5f.Emscripten.clang"
  },
  "schemaVersion": "3.4.11",
  "updatedAt": "2023-01-25T20:26:51.096Z",
  "networkType": "ethereum",
  "devdoc": {
    "kind": "dev",
    "methods": {
      "bankruptStakers(address,address[],uint256[])": {
        "details": "indices to be of same length as bankruptAddresses",
        "params": {
          "indices": "array of indices of bankruptAddresses in the pendingUnstaker array value will be ignored if bankruptAddress has no pending unstakes"
        }
      },
      "cancelUnstake(uint256)": {
        "details": "more gas efficient by taking in the index to avoid iterating through pendingUnstakers"
      },
      "constructor": {
        "custom:oz-upgrades-unsafe-allow": "constructor"
      },
      "getRoleAdmin(bytes32)": {
        "details": "Returns the admin role that controls `role`. See {grantRole} and {revokeRole}. To change a role's admin, use {_setRoleAdmin}."
      },
      "grantRole(bytes32,address)": {
        "details": "Grants `role` to `account`. If `account` had not been already granted `role`, emits a {RoleGranted} event. Requirements: - the caller must have ``role``'s admin role. May emit a {RoleGranted} event."
      },
      "hasRole(bytes32,address)": {
        "details": "Returns `true` if `account` has been granted `role`."
      },
      "renounceRole(bytes32,address)": {
        "details": "Revokes `role` from the calling account. Roles are often managed via {grantRole} and {revokeRole}: this function's purpose is to provide a mechanism for accounts to lose their privileges if they are compromised (such as when a trusted device is misplaced). If the calling account had been revoked `role`, emits a {RoleRevoked} event. Requirements: - the caller must be `account`. May emit a {RoleRevoked} event."
      },
      "revokeRole(bytes32,address)": {
        "details": "Revokes `role` from `account`. If `account` had been granted `role`, emits a {RoleRevoked} event. Requirements: - the caller must have ``role``'s admin role. May emit a {RoleRevoked} event."
      },
      "supportsInterface(bytes4)": {
        "details": "See {IERC165-supportsInterface}."
      }
    },
    "version": 1
  },
  "userdoc": {
    "kind": "user",
    "methods": {},
    "version": 1
  }
}