{
  "contractName": "CoveyStaking",
  "abi": [
    {
      "inputs": [],
      "stateMutability": "nonpayable",
      "type": "constructor"
    },
    {
      "anonymous": false,
      "inputs": [
        {
          "indexed": true,
          "internalType": "address",
          "name": "_adr",
          "type": "address"
        },
        {
          "indexed": false,
          "internalType": "uint256",
          "name": "amountLost",
          "type": "uint256"
        }
      ],
      "name": "Bankrupt",
      "type": "event"
    },
    {
      "anonymous": false,
      "inputs": [
        {
          "indexed": true,
          "internalType": "address",
          "name": "_adr",
          "type": "address"
        }
      ],
      "name": "CancelledUnstake",
      "type": "event"
    },
    {
      "anonymous": false,
      "inputs": [
        {
          "indexed": false,
          "internalType": "uint8",
          "name": "version",
          "type": "uint8"
        }
      ],
      "name": "Initialized",
      "type": "event"
    },
    {
      "anonymous": false,
      "inputs": [
        {
          "indexed": true,
          "internalType": "bytes32",
          "name": "role",
          "type": "bytes32"
        },
        {
          "indexed": true,
          "internalType": "bytes32",
          "name": "previousAdminRole",
          "type": "bytes32"
        },
        {
          "indexed": true,
          "internalType": "bytes32",
          "name": "newAdminRole",
          "type": "bytes32"
        }
      ],
      "name": "RoleAdminChanged",
      "type": "event"
    },
    {
      "anonymous": false,
      "inputs": [
        {
          "indexed": true,
          "internalType": "bytes32",
          "name": "role",
          "type": "bytes32"
        },
        {
          "indexed": true,
          "internalType": "address",
          "name": "account",
          "type": "address"
        },
        {
          "indexed": true,
          "internalType": "address",
          "name": "sender",
          "type": "address"
        }
      ],
      "name": "RoleGranted",
      "type": "event"
    },
    {
      "anonymous": false,
      "inputs": [
        {
          "indexed": true,
          "internalType": "bytes32",
          "name": "role",
          "type": "bytes32"
        },
        {
          "indexed": true,
          "internalType": "address",
          "name": "account",
          "type": "address"
        },
        {
          "indexed": true,
          "internalType": "address",
          "name": "sender",
          "type": "address"
        }
      ],
      "name": "RoleRevoked",
      "type": "event"
    },
    {
      "anonymous": false,
      "inputs": [
        {
          "indexed": true,
          "internalType": "address",
          "name": "_adr",
          "type": "address"
        },
        {
          "indexed": false,
          "internalType": "uint256",
          "name": "amountDispensed",
          "type": "uint256"
        }
      ],
      "name": "StakeDispensed",
      "type": "event"
    },
    {
      "anonymous": false,
      "inputs": [
        {
          "indexed": true,
          "internalType": "address",
          "name": "_adr",
          "type": "address"
        },
        {
          "indexed": false,
          "internalType": "uint256",
          "name": "amount",
          "type": "uint256"
        },
        {
          "indexed": false,
          "internalType": "uint256",
          "name": "totalStakedAmount",
          "type": "uint256"
        }
      ],
      "name": "Staked",
      "type": "event"
    },
    {
      "anonymous": false,
      "inputs": [
        {
          "indexed": true,
          "internalType": "address",
          "name": "_adr",
          "type": "address"
        },
        {
          "indexed": false,
          "internalType": "uint256",
          "name": "amount",
          "type": "uint256"
        },
        {
          "indexed": false,
          "internalType": "uint256",
          "name": "totalUnstakedAmount",
          "type": "uint256"
        }
      ],
      "name": "Unstaked",
      "type": "event"
    },
    {
      "inputs": [],
      "name": "DEFAULT_ADMIN_ROLE",
      "outputs": [
        {
          "internalType": "bytes32",
          "name": "",
          "type": "bytes32"
        }
      ],
      "stateMutability": "view",
      "type": "function",
      "constant": true
    },
    {
      "inputs": [],
      "name": "DISPENSER",
      "outputs": [
        {
          "internalType": "bytes32",
          "name": "",
          "type": "bytes32"
        }
      ],
      "stateMutability": "view",
      "type": "function",
      "constant": true
    },
    {
      "inputs": [
        {
          "internalType": "bytes32",
          "name": "role",
          "type": "bytes32"
        }
      ],
      "name": "getRoleAdmin",
      "outputs": [
        {
          "internalType": "bytes32",
          "name": "",
          "type": "bytes32"
        }
      ],
      "stateMutability": "view",
      "type": "function",
      "constant": true
    },
    {
      "inputs": [
        {
          "internalType": "bytes32",
          "name": "role",
          "type": "bytes32"
        },
        {
          "internalType": "address",
          "name": "account",
          "type": "address"
        }
      ],
      "name": "grantRole",
      "outputs": [],
      "stateMutability": "nonpayable",
      "type": "function"
    },
    {
      "inputs": [
        {
          "internalType": "bytes32",
          "name": "role",
          "type": "bytes32"
        },
        {
          "internalType": "address",
          "name": "account",
          "type": "address"
        }
      ],
      "name": "hasRole",
      "outputs": [
        {
          "internalType": "bool",
          "name": "",
          "type": "bool"
        }
      ],
      "stateMutability": "view",
      "type": "function",
      "constant": true
    },
    {
      "inputs": [
        {
          "internalType": "uint256",
          "name": "",
          "type": "uint256"
        }
      ],
      "name": "pendingUnstakers",
      "outputs": [
        {
          "internalType": "address",
          "name": "",
          "type": "address"
        }
      ],
      "stateMutability": "view",
      "type": "function",
      "constant": true
    },
    {
      "inputs": [
        {
          "internalType": "bytes32",
          "name": "role",
          "type": "bytes32"
        },
        {
          "internalType": "address",
          "name": "account",
          "type": "address"
        }
      ],
      "name": "renounceRole",
      "outputs": [],
      "stateMutability": "nonpayable",
      "type": "function"
    },
    {
      "inputs": [
        {
          "internalType": "bytes32",
          "name": "role",
          "type": "bytes32"
        },
        {
          "internalType": "address",
          "name": "account",
          "type": "address"
        }
      ],
      "name": "revokeRole",
      "outputs": [],
      "stateMutability": "nonpayable",
      "type": "function"
    },
    {
      "inputs": [
        {
          "internalType": "address",
          "name": "",
          "type": "address"
        }
      ],
      "name": "stakedAmounts",
      "outputs": [
        {
          "internalType": "uint256",
          "name": "",
          "type": "uint256"
        }
      ],
      "stateMutability": "view",
      "type": "function",
      "constant": true
    },
    {
      "inputs": [],
      "name": "stakingToken",
      "outputs": [
        {
          "internalType": "contract IERC20",
          "name": "",
          "type": "address"
        }
      ],
      "stateMutability": "view",
      "type": "function",
      "constant": true
    },
    {
      "inputs": [
        {
          "internalType": "bytes4",
          "name": "interfaceId",
          "type": "bytes4"
        }
      ],
      "name": "supportsInterface",
      "outputs": [
        {
          "internalType": "bool",
          "name": "",
          "type": "bool"
        }
      ],
      "stateMutability": "view",
      "type": "function",
      "constant": true
    },
    {
      "inputs": [
        {
          "internalType": "address",
          "name": "",
          "type": "address"
        }
      ],
      "name": "unstakedAmounts",
      "outputs": [
        {
          "internalType": "uint256",
          "name": "",
          "type": "uint256"
        }
      ],
      "stateMutability": "view",
      "type": "function",
      "constant": true
    },
    {
      "inputs": [
        {
          "internalType": "contract IERC20",
          "name": "_stakingToken",
          "type": "address"
        }
      ],
      "name": "initialize",
      "outputs": [],
      "stateMutability": "nonpayable",
      "type": "function"
    },
    {
      "inputs": [
        {
          "internalType": "uint256",
          "name": "amount",
          "type": "uint256"
        }
      ],
      "name": "stake",
      "outputs": [],
      "stateMutability": "nonpayable",
      "type": "function"
    },
    {
      "inputs": [
        {
          "internalType": "uint256",
          "name": "amount",
          "type": "uint256"
        }
      ],
      "name": "unstake",
      "outputs": [],
      "stateMutability": "nonpayable",
      "type": "function"
    },
    {
      "inputs": [
        {
          "internalType": "uint256",
          "name": "index",
          "type": "uint256"
        }
      ],
      "name": "cancelUnstake",
      "outputs": [],
      "stateMutability": "nonpayable",
      "type": "function"
    },
    {
      "inputs": [],
      "name": "cancelUnstake",
      "outputs": [],
      "stateMutability": "nonpayable",
      "type": "function"
    },
    {
      "inputs": [],
      "name": "dispenseStakes",
      "outputs": [],
      "stateMutability": "nonpayable",
      "type": "function"
    },
    {
      "inputs": [
        {
          "internalType": "address",
          "name": "bankruptciesReceiver",
          "type": "address"
        },
        {
          "internalType": "address[]",
          "name": "bankruptAddresses",
          "type": "address[]"
        },
        {
          "internalType": "uint256[]",
          "name": "indices",
          "type": "uint256[]"
        }
      ],
      "name": "bankruptStakers",
      "outputs": [],
      "stateMutability": "nonpayable",
      "type": "function"
    },
    {
      "inputs": [
        {
          "internalType": "address",
          "name": "staker",
          "type": "address"
        }
      ],
      "name": "getNetStaked",
      "outputs": [
        {
          "internalType": "uint256",
          "name": "",
          "type": "uint256"
        }
      ],
      "stateMutability": "view",
      "type": "function",
      "constant": true
    },
    {
      "inputs": [],
      "name": "getAllNetStaked",
      "outputs": [
        {
          "components": [
            {
              "internalType": "address",
              "name": "staker",
              "type": "address"
            },
            {
              "internalType": "uint256",
              "name": "stakedAmount",
              "type": "uint256"
            }
          ],
          "internalType": "struct CoveyStaking.StakeInfo[]",
          "name": "stakeInformation",
          "type": "tuple[]"
        }
      ],
      "stateMutability": "view",
      "type": "function",
      "constant": true
    },
    {
      "inputs": [
        {
          "internalType": "address",
          "name": "_addr",
          "type": "address"
        }
      ],
      "name": "delegateDispenser",
      "outputs": [],
      "stateMutability": "nonpayable",
      "type": "function"
    },
    {
      "inputs": [
        {
          "internalType": "address",
          "name": "_addr",
          "type": "address"
        }
      ],
      "name": "revokeDispenser",
      "outputs": [],
      "stateMutability": "nonpayable",
      "type": "function"
    }
  ],
  "bytecode": "0x60806040523480156200001157600080fd5b50620000226200002860201b60201c565b620001d3565b600060019054906101000a900460ff16156200007b576040517f08c379a0000000000000000000000000000000000000000000000000000000008152600401620000729062000176565b60405180910390fd5b60ff801660008054906101000a900460ff1660ff161015620000ed5760ff6000806101000a81548160ff021916908360ff1602179055507f7f26b83ff96e1f2b6a682f133852f6798a09c465da95921460cefb384740249860ff604051620000e49190620001b6565b60405180910390a15b565b600082825260208201905092915050565b7f496e697469616c697a61626c653a20636f6e747261637420697320696e69746960008201527f616c697a696e6700000000000000000000000000000000000000000000000000602082015250565b60006200015e602783620000ef565b91506200016b8262000100565b604082019050919050565b6000602082019050818103600083015262000191816200014f565b9050919050565b600060ff82169050919050565b620001b08162000198565b82525050565b6000602082019050620001cd6000830184620001a5565b92915050565b6135d580620001e36000396000f3fe608060405234801561001057600080fd5b506004361061014d5760003560e01c8063681a946e116100c3578063b2d1e58c1161007c578063b2d1e58c14610386578063c4d66de8146103a4578063d547741f146103c0578063ded2e7da146103dc578063e14cf1e41461040c578063fbb83bf21461042a5761014d565b8063681a946e146102b257806372f702f3146102e2578063866c1f5f1461030057806391d148541461031c578063a217fddf1461034c578063a694fc3a1461036a5761014d565b80632e17de78116101155780632e17de78146102085780632f2ff15d1461022457806336568abe146102405780633bacd1b51461025c5780634ab179691461028c5780636620f595146102965761014d565b806301ffc9a71461015257806310c1c1031461018257806322c49460146101b2578063248a9ca3146101bc5780632b187b2b146101ec575b600080fd5b61016c6004803603810190610167919061257c565b610446565b60405161017991906125c4565b60405180910390f35b61019c6004803603810190610197919061263d565b6104c0565b6040516101a99190612683565b60405180910390f35b6101ba6104d8565b005b6101d660048036038101906101d191906126d4565b610832565b6040516101e39190612710565b60405180910390f35b61020660048036038101906102019190612757565b610852565b005b610222600480360381019061021d9190612757565b610afc565b005b61023e60048036038101906102399190612784565b610d13565b005b61025a60048036038101906102559190612784565b610d34565b005b6102766004803603810190610271919061263d565b610db7565b6040516102839190612683565b60405180910390f35b610294610dcf565b005b6102b060048036038101906102ab919061263d565b611065565b005b6102cc60048036038101906102c79190612757565b6110de565b6040516102d991906127d3565b60405180910390f35b6102ea61111d565b6040516102f7919061284d565b60405180910390f35b61031a6004803603810190610315919061263d565b611143565b005b61033660048036038101906103319190612784565b6111bc565b60405161034391906125c4565b60405180910390f35b610354611227565b6040516103619190612710565b60405180910390f35b610384600480360381019061037f9190612757565b61122e565b005b61038e611429565b60405161039b9190612710565b60405180910390f35b6103be60048036038101906103b991906128a6565b61144d565b005b6103da60048036038101906103d59190612784565b6115da565b005b6103f660048036038101906103f1919061263d565b6115fb565b6040516104039190612683565b60405180910390f35b61041461168e565b60405161042191906129cf565b60405180910390f35b610444600480360381019061043f9190612aac565b61177e565b005b60007f7965db0b000000000000000000000000000000000000000000000000000000007bffffffffffffffffffffffffffffffffffffffffffffffffffffffff1916827bffffffffffffffffffffffffffffffffffffffffffffffffffffffff191614806104b957506104b882611c51565b5b9050919050565b609b6020528060005260406000206000915090505481565b6104e56000801b336111bc565b8061051657506105157f6819d2896fa4833eb5158abc566f5567fa977a468f59c2b18ae25bfe434af5c3336111bc565b5b610555576040517f08c379a000000000000000000000000000000000000000000000000000000000815260040161054c90612b9e565b60405180910390fd5b6000609a80549050905060008060005b8381101561081e57609a818154811061058157610580612bbe565b5b9060005260206000200160009054906101000a900473ffffffffffffffffffffffffffffffffffffffff169250609c60008473ffffffffffffffffffffffffffffffffffffffff1673ffffffffffffffffffffffffffffffffffffffff16815260200190815260200160002054915081609b60008573ffffffffffffffffffffffffffffffffffffffff1673ffffffffffffffffffffffffffffffffffffffff1681526020019081526020016000205461063b9190612c1c565b609b60008573ffffffffffffffffffffffffffffffffffffffff1673ffffffffffffffffffffffffffffffffffffffff16815260200190815260200160002081905550609c60008473ffffffffffffffffffffffffffffffffffffffff1673ffffffffffffffffffffffffffffffffffffffff168152602001908152602001600020600090556000609b60008573ffffffffffffffffffffffffffffffffffffffff1673ffffffffffffffffffffffffffffffffffffffff168152602001908152602001600020540361071e5761071c836098611cbb90919063ffffffff16565b505b609760009054906101000a900473ffffffffffffffffffffffffffffffffffffffff1673ffffffffffffffffffffffffffffffffffffffff1663a9059cbb84846040518363ffffffff1660e01b815260040161077b929190612c50565b6020604051808303816000875af115801561079a573d6000803e3d6000fd5b505050506040513d601f19601f820116820180604052508101906107be9190612ca5565b508273ffffffffffffffffffffffffffffffffffffffff167f9b4c90d41aa819dadecbb2e126e6dc2e01be4402acc99ec60248131a3f59576c836040516108059190612683565b60405180910390a28061081790612cd2565b9050610565565b50609a600061082d91906124ac565b505050565b600060656000838152602001908152602001600020600101549050919050565b6000609c60003373ffffffffffffffffffffffffffffffffffffffff1673ffffffffffffffffffffffffffffffffffffffff16815260200190815260200160002054116108d4576040517f08c379a00000000000000000000000000000000000000000000000000000000081526004016108cb90612d66565b60405180910390fd5b609c60003373ffffffffffffffffffffffffffffffffffffffff1673ffffffffffffffffffffffffffffffffffffffff168152602001908152602001600020600090553373ffffffffffffffffffffffffffffffffffffffff16609a828154811061094257610941612bbe565b5b9060005260206000200160009054906101000a900473ffffffffffffffffffffffffffffffffffffffff1673ffffffffffffffffffffffffffffffffffffffff16146109c3576040517f08c379a00000000000000000000000000000000000000000000000000000000081526004016109ba90612dd2565b60405180910390fd5b609a6001609a805490506109d79190612c1c565b815481106109e8576109e7612bbe565b5b9060005260206000200160009054906101000a900473ffffffffffffffffffffffffffffffffffffffff16609a8281548110610a2757610a26612bbe565b5b9060005260206000200160006101000a81548173ffffffffffffffffffffffffffffffffffffffff021916908373ffffffffffffffffffffffffffffffffffffffff160217905550609a805480610a8157610a80612df2565b5b6001900381819060005260206000200160006101000a81549073ffffffffffffffffffffffffffffffffffffffff021916905590553373ffffffffffffffffffffffffffffffffffffffff167f450cc0f663f8ded0053aeca240ef53a2f4b93c5c3aa067e8e45155e823ceaa7a60405160405180910390a250565b60008103610b3f576040517f08c379a0000000000000000000000000000000000000000000000000000000008152600401610b3690612e6d565b60405180910390fd5b600081609c60003373ffffffffffffffffffffffffffffffffffffffff1673ffffffffffffffffffffffffffffffffffffffff16815260200190815260200160002054610b8c9190612e8d565b905080609b60003373ffffffffffffffffffffffffffffffffffffffff1673ffffffffffffffffffffffffffffffffffffffff168152602001908152602001600020541015610c10576040517f08c379a0000000000000000000000000000000000000000000000000000000008152600401610c0790612f0d565b60405180910390fd5b818103610c7b57609a339080600181540180825580915050600190039060005260206000200160009091909190916101000a81548173ffffffffffffffffffffffffffffffffffffffff021916908373ffffffffffffffffffffffffffffffffffffffff1602179055505b80609c60003373ffffffffffffffffffffffffffffffffffffffff1673ffffffffffffffffffffffffffffffffffffffff168152602001908152602001600020819055503373ffffffffffffffffffffffffffffffffffffffff167f7fc4727e062e336010f2c282598ef5f14facb3de68cf8195c2f23e1454b2b74e8383604051610d07929190612f2d565b60405180910390a25050565b610d1c82610832565b610d2581611ceb565b610d2f8383611cff565b505050565b610d3c611de0565b73ffffffffffffffffffffffffffffffffffffffff168173ffffffffffffffffffffffffffffffffffffffff1614610da9576040517f08c379a0000000000000000000000000000000000000000000000000000000008152600401610da090612fc8565b60405180910390fd5b610db38282611de8565b5050565b609c6020528060005260406000206000915090505481565b6000609c60003373ffffffffffffffffffffffffffffffffffffffff1673ffffffffffffffffffffffffffffffffffffffff1681526020019081526020016000205411610e51576040517f08c379a0000000000000000000000000000000000000000000000000000000008152600401610e4890612d66565b60405180910390fd5b609c60003373ffffffffffffffffffffffffffffffffffffffff1673ffffffffffffffffffffffffffffffffffffffff168152602001908152602001600020600090556000609a80549050905060005b8181101561101e573373ffffffffffffffffffffffffffffffffffffffff16609a8281548110610ed457610ed3612bbe565b5b9060005260206000200160009054906101000a900473ffffffffffffffffffffffffffffffffffffffff1673ffffffffffffffffffffffffffffffffffffffff160361100d57609a600183610f299190612c1c565b81548110610f3a57610f39612bbe565b5b9060005260206000200160009054906101000a900473ffffffffffffffffffffffffffffffffffffffff16609a8281548110610f7957610f78612bbe565b5b9060005260206000200160006101000a81548173ffffffffffffffffffffffffffffffffffffffff021916908373ffffffffffffffffffffffffffffffffffffffff160217905550609a805480610fd357610fd2612df2565b5b6001900381819060005260206000200160006101000a81549073ffffffffffffffffffffffffffffffffffffffff0219169055905561101e565b8061101790612cd2565b9050610ea1565b503373ffffffffffffffffffffffffffffffffffffffff167f450cc0f663f8ded0053aeca240ef53a2f4b93c5c3aa067e8e45155e823ceaa7a60405160405180910390a250565b6110726000801b336111bc565b6110b1576040517f08c379a00000000000000000000000000000000000000000000000000000000081526004016110a890613034565b60405180910390fd5b6110db7f6819d2896fa4833eb5158abc566f5567fa977a468f59c2b18ae25bfe434af5c382610d13565b50565b609a81815481106110ee57600080fd5b906000526020600020016000915054906101000a900473ffffffffffffffffffffffffffffffffffffffff1681565b609760009054906101000a900473ffffffffffffffffffffffffffffffffffffffff1681565b6111506000801b336111bc565b61118f576040517f08c379a000000000000000000000000000000000000000000000000000000000815260040161118690613034565b60405180910390fd5b6111b97f6819d2896fa4833eb5158abc566f5567fa977a468f59c2b18ae25bfe434af5c3826115da565b50565b60006065600084815260200190815260200160002060000160008373ffffffffffffffffffffffffffffffffffffffff1673ffffffffffffffffffffffffffffffffffffffff16815260200190815260200160002060009054906101000a900460ff16905092915050565b6000801b81565b60008103611271576040517f08c379a000000000000000000000000000000000000000000000000000000000815260040161126890612e6d565b60405180910390fd5b609760009054906101000a900473ffffffffffffffffffffffffffffffffffffffff1673ffffffffffffffffffffffffffffffffffffffff166323b872dd3330846040518463ffffffff1660e01b81526004016112d093929190613054565b6020604051808303816000875af11580156112ef573d6000803e3d6000fd5b505050506040513d601f19601f820116820180604052508101906113139190612ca5565b50611328336098611eca90919063ffffffff16565b61134257611340336098611efa90919063ffffffff16565b505b600081609b60003373ffffffffffffffffffffffffffffffffffffffff1673ffffffffffffffffffffffffffffffffffffffff1681526020019081526020016000205461138f9190612e8d565b905080609b60003373ffffffffffffffffffffffffffffffffffffffff1673ffffffffffffffffffffffffffffffffffffffff168152602001908152602001600020819055503373ffffffffffffffffffffffffffffffffffffffff167f1449c6dd7851abc30abf37f57715f492010519147cc2652fbc38202c18a6ee90838360405161141d929190612f2d565b60405180910390a25050565b7f6819d2896fa4833eb5158abc566f5567fa977a468f59c2b18ae25bfe434af5c381565b60008060019054906101000a900460ff1615905080801561147e5750600160008054906101000a900460ff1660ff16105b806114ab575061148d30611f2a565b1580156114aa5750600160008054906101000a900460ff1660ff16145b5b6114ea576040517f08c379a00000000000000000000000000000000000000000000000000000000081526004016114e1906130fd565b60405180910390fd5b60016000806101000a81548160ff021916908360ff1602179055508015611527576001600060016101000a81548160ff0219169083151502179055505b61152f611f4d565b81609760006101000a81548173ffffffffffffffffffffffffffffffffffffffff021916908373ffffffffffffffffffffffffffffffffffffffff16021790555061157d6000801b33611f9e565b80156115d65760008060016101000a81548160ff0219169083151502179055507f7f26b83ff96e1f2b6a682f133852f6798a09c465da95921460cefb384740249860016040516115cd9190613165565b60405180910390a15b5050565b6115e382610832565b6115ec81611ceb565b6115f68383611de8565b505050565b6000609c60008373ffffffffffffffffffffffffffffffffffffffff1673ffffffffffffffffffffffffffffffffffffffff16815260200190815260200160002054609b60008473ffffffffffffffffffffffffffffffffffffffff1673ffffffffffffffffffffffffffffffffffffffff168152602001908152602001600020546116879190612c1c565b9050919050565b6060600061169c6098611fac565b90508067ffffffffffffffff8111156116b8576116b7613180565b5b6040519080825280602002602001820160405280156116f157816020015b6116de6124cd565b8152602001906001900390816116d65790505b5091506000805b8281101561177857611714816098611fc190919063ffffffff16565b915060405180604001604052808373ffffffffffffffffffffffffffffffffffffffff168152602001611746846115fb565b81525084828151811061175c5761175b612bbe565b5b60200260200101819052508061177190612cd2565b90506116f8565b50505090565b61178b6000801b336111bc565b6117ca576040517f08c379a00000000000000000000000000000000000000000000000000000000081526004016117c190613034565b60405180910390fd5b6000848490509050828290508114611817576040517f08c379a000000000000000000000000000000000000000000000000000000000815260040161180e906131fb565b60405180910390fd5b60008060005b83811015611c465787878281811061183857611837612bbe565b5b905060200201602081019061184d919061263d565b9250609b60008473ffffffffffffffffffffffffffffffffffffffff1673ffffffffffffffffffffffffffffffffffffffff1681526020019081526020016000205491506000609c60008573ffffffffffffffffffffffffffffffffffffffff1673ffffffffffffffffffffffffffffffffffffffff168152602001908152602001600020541115611aee578273ffffffffffffffffffffffffffffffffffffffff16609a87878481811061190557611904612bbe565b5b905060200201358154811061191d5761191c612bbe565b5b9060005260206000200160009054906101000a900473ffffffffffffffffffffffffffffffffffffffff1673ffffffffffffffffffffffffffffffffffffffff161461199e576040517f08c379a000000000000000000000000000000000000000000000000000000000815260040161199590613267565b60405180910390fd5b609a6001609a805490506119b29190612c1c565b815481106119c3576119c2612bbe565b5b9060005260206000200160009054906101000a900473ffffffffffffffffffffffffffffffffffffffff16609a878784818110611a0357611a02612bbe565b5b9050602002013581548110611a1b57611a1a612bbe565b5b9060005260206000200160006101000a81548173ffffffffffffffffffffffffffffffffffffffff021916908373ffffffffffffffffffffffffffffffffffffffff160217905550609a805480611a7557611a74612df2565b5b6001900381819060005260206000200160006101000a81549073ffffffffffffffffffffffffffffffffffffffff02191690559055609c60008473ffffffffffffffffffffffffffffffffffffffff1673ffffffffffffffffffffffffffffffffffffffff168152602001908152602001600020600090555b609b60008473ffffffffffffffffffffffffffffffffffffffff1673ffffffffffffffffffffffffffffffffffffffff16815260200190815260200160002060009055611b45836098611cbb90919063ffffffff16565b50609760009054906101000a900473ffffffffffffffffffffffffffffffffffffffff1673ffffffffffffffffffffffffffffffffffffffff1663a9059cbb8a846040518363ffffffff1660e01b8152600401611ba3929190612c50565b6020604051808303816000875af1158015611bc2573d6000803e3d6000fd5b505050506040513d601f19601f82011682018060405250810190611be69190612ca5565b508273ffffffffffffffffffffffffffffffffffffffff167f7fe451685bab7a17da665cc038b4635412b8d788bb692963f88e35eba15ae17583604051611c2d9190612683565b60405180910390a280611c3f90612cd2565b905061181d565b505050505050505050565b60007f01ffc9a7000000000000000000000000000000000000000000000000000000007bffffffffffffffffffffffffffffffffffffffffffffffffffffffff1916827bffffffffffffffffffffffffffffffffffffffffffffffffffffffff1916149050919050565b6000611ce3836000018373ffffffffffffffffffffffffffffffffffffffff1660001b611fdb565b905092915050565b611cfc81611cf7611de0565b6120ef565b50565b611d0982826111bc565b611ddc5760016065600084815260200190815260200160002060000160008373ffffffffffffffffffffffffffffffffffffffff1673ffffffffffffffffffffffffffffffffffffffff16815260200190815260200160002060006101000a81548160ff021916908315150217905550611d81611de0565b73ffffffffffffffffffffffffffffffffffffffff168173ffffffffffffffffffffffffffffffffffffffff16837f2f8788117e7eff1d82e926ec794901d17c78024a50270940304540a733656f0d60405160405180910390a45b5050565b600033905090565b611df282826111bc565b15611ec65760006065600084815260200190815260200160002060000160008373ffffffffffffffffffffffffffffffffffffffff1673ffffffffffffffffffffffffffffffffffffffff16815260200190815260200160002060006101000a81548160ff021916908315150217905550611e6b611de0565b73ffffffffffffffffffffffffffffffffffffffff168173ffffffffffffffffffffffffffffffffffffffff16837ff6391f5c32d9c69d2a47ea670b442974b53935d1edc7fd64eb21e047a839171b60405160405180910390a45b5050565b6000611ef2836000018373ffffffffffffffffffffffffffffffffffffffff1660001b612174565b905092915050565b6000611f22836000018373ffffffffffffffffffffffffffffffffffffffff1660001b612197565b905092915050565b6000808273ffffffffffffffffffffffffffffffffffffffff163b119050919050565b600060019054906101000a900460ff16611f9c576040517f08c379a0000000000000000000000000000000000000000000000000000000008152600401611f93906132f9565b60405180910390fd5b565b611fa88282611cff565b5050565b6000611fba82600001612207565b9050919050565b6000611fd08360000183612218565b60001c905092915050565b600080836001016000848152602001908152602001600020549050600081146120e357600060018261200d9190612c1c565b90506000600186600001805490506120259190612c1c565b905081811461209457600086600001828154811061204657612045612bbe565b5b906000526020600020015490508087600001848154811061206a57612069612bbe565b5b90600052602060002001819055508387600101600083815260200190815260200160002081905550505b856000018054806120a8576120a7612df2565b5b6001900381819060005260206000200160009055905585600101600086815260200190815260200160002060009055600193505050506120e9565b60009150505b92915050565b6120f982826111bc565b6121705761210681612243565b6121148360001c6020612270565b604051602001612125929190613422565b6040516020818303038152906040526040517f08c379a000000000000000000000000000000000000000000000000000000000815260040161216791906134a6565b60405180910390fd5b5050565b600080836001016000848152602001908152602001600020541415905092915050565b60006121a38383612174565b6121fc578260000182908060018154018082558091505060019003906000526020600020016000909190919091505582600001805490508360010160008481526020019081526020016000208190555060019050612201565b600090505b92915050565b600081600001805490509050919050565b60008260000182815481106122305761222f612bbe565b5b9060005260206000200154905092915050565b60606122698273ffffffffffffffffffffffffffffffffffffffff16601460ff16612270565b9050919050565b60606000600283600261228391906134c8565b61228d9190612e8d565b67ffffffffffffffff8111156122a6576122a5613180565b5b6040519080825280601f01601f1916602001820160405280156122d85781602001600182028036833780820191505090505b5090507f3000000000000000000000000000000000000000000000000000000000000000816000815181106123105761230f612bbe565b5b60200101907effffffffffffffffffffffffffffffffffffffffffffffffffffffffffffff1916908160001a9053507f78000000000000000000000000000000000000000000000000000000000000008160018151811061237457612373612bbe565b5b60200101907effffffffffffffffffffffffffffffffffffffffffffffffffffffffffffff1916908160001a905350600060018460026123b491906134c8565b6123be9190612e8d565b90505b600181111561245e577f3031323334353637383961626364656600000000000000000000000000000000600f861660108110612400576123ff612bbe565b5b1a60f81b82828151811061241757612416612bbe565b5b60200101907effffffffffffffffffffffffffffffffffffffffffffffffffffffffffffff1916908160001a905350600485901c9450806124579061350a565b90506123c1565b50600084146124a2576040517f08c379a00000000000000000000000000000000000000000000000000000000081526004016124999061357f565b60405180910390fd5b8091505092915050565b50805460008255906000526020600020908101906124ca91906124fd565b50565b6040518060400160405280600073ffffffffffffffffffffffffffffffffffffffff168152602001600081525090565b5b808211156125165760008160009055506001016124fe565b5090565b600080fd5b600080fd5b60007fffffffff0000000000000000000000000000000000000000000000000000000082169050919050565b61255981612524565b811461256457600080fd5b50565b60008135905061257681612550565b92915050565b6000602082840312156125925761259161251a565b5b60006125a084828501612567565b91505092915050565b60008115159050919050565b6125be816125a9565b82525050565b60006020820190506125d960008301846125b5565b92915050565b600073ffffffffffffffffffffffffffffffffffffffff82169050919050565b600061260a826125df565b9050919050565b61261a816125ff565b811461262557600080fd5b50565b60008135905061263781612611565b92915050565b6000602082840312156126535761265261251a565b5b600061266184828501612628565b91505092915050565b6000819050919050565b61267d8161266a565b82525050565b60006020820190506126986000830184612674565b92915050565b6000819050919050565b6126b18161269e565b81146126bc57600080fd5b50565b6000813590506126ce816126a8565b92915050565b6000602082840312156126ea576126e961251a565b5b60006126f8848285016126bf565b91505092915050565b61270a8161269e565b82525050565b60006020820190506127256000830184612701565b92915050565b6127348161266a565b811461273f57600080fd5b50565b6000813590506127518161272b565b92915050565b60006020828403121561276d5761276c61251a565b5b600061277b84828501612742565b91505092915050565b6000806040838503121561279b5761279a61251a565b5b60006127a9858286016126bf565b92505060206127ba85828601612628565b9150509250929050565b6127cd816125ff565b82525050565b60006020820190506127e860008301846127c4565b92915050565b6000819050919050565b600061281361280e612809846125df565b6127ee565b6125df565b9050919050565b6000612825826127f8565b9050919050565b60006128378261281a565b9050919050565b6128478161282c565b82525050565b6000602082019050612862600083018461283e565b92915050565b6000612873826125ff565b9050919050565b61288381612868565b811461288e57600080fd5b50565b6000813590506128a08161287a565b92915050565b6000602082840312156128bc576128bb61251a565b5b60006128ca84828501612891565b91505092915050565b600081519050919050565b600082825260208201905092915050565b6000819050602082019050919050565b612908816125ff565b82525050565b6129178161266a565b82525050565b60408201600082015161293360008501826128ff565b506020820151612946602085018261290e565b50505050565b6000612958838361291d565b60408301905092915050565b6000602082019050919050565b600061297c826128d3565b61298681856128de565b9350612991836128ef565b8060005b838110156129c25781516129a9888261294c565b97506129b483612964565b925050600181019050612995565b5085935050505092915050565b600060208201905081810360008301526129e98184612971565b905092915050565b600080fd5b600080fd5b600080fd5b60008083601f840112612a1657612a156129f1565b5b8235905067ffffffffffffffff811115612a3357612a326129f6565b5b602083019150836020820283011115612a4f57612a4e6129fb565b5b9250929050565b60008083601f840112612a6c57612a6b6129f1565b5b8235905067ffffffffffffffff811115612a8957612a886129f6565b5b602083019150836020820283011115612aa557612aa46129fb565b5b9250929050565b600080600080600060608688031215612ac857612ac761251a565b5b6000612ad688828901612628565b955050602086013567ffffffffffffffff811115612af757612af661251f565b5b612b0388828901612a00565b9450945050604086013567ffffffffffffffff811115612b2657612b2561251f565b5b612b3288828901612a56565b92509250509295509295909350565b600082825260208201905092915050565b7f4f6e6c79206f776e6572206f722064697370656e736572000000000000000000600082015250565b6000612b88601783612b41565b9150612b9382612b52565b602082019050919050565b60006020820190508181036000830152612bb781612b7b565b9050919050565b7f4e487b7100000000000000000000000000000000000000000000000000000000600052603260045260246000fd5b7f4e487b7100000000000000000000000000000000000000000000000000000000600052601160045260246000fd5b6000612c278261266a565b9150612c328361266a565b9250828203905081811115612c4a57612c49612bed565b5b92915050565b6000604082019050612c6560008301856127c4565b612c726020830184612674565b9392505050565b612c82816125a9565b8114612c8d57600080fd5b50565b600081519050612c9f81612c79565b92915050565b600060208284031215612cbb57612cba61251a565b5b6000612cc984828501612c90565b91505092915050565b6000612cdd8261266a565b91507fffffffffffffffffffffffffffffffffffffffffffffffffffffffffffffffff8203612d0f57612d0e612bed565b5b600182019050919050565b7f3020756e7374616b650000000000000000000000000000000000000000000000600082015250565b6000612d50600983612b41565b9150612d5b82612d1a565b602082019050919050565b60006020820190508181036000830152612d7f81612d43565b9050919050565b7f57726f6e6720696e646578000000000000000000000000000000000000000000600082015250565b6000612dbc600b83612b41565b9150612dc782612d86565b602082019050919050565b60006020820190508181036000830152612deb81612daf565b9050919050565b7f4e487b7100000000000000000000000000000000000000000000000000000000600052603160045260246000fd5b7f3020616d6f756e74000000000000000000000000000000000000000000000000600082015250565b6000612e57600883612b41565b9150612e6282612e21565b602082019050919050565b60006020820190508181036000830152612e8681612e4a565b9050919050565b6000612e988261266a565b9150612ea38361266a565b9250828201905080821115612ebb57612eba612bed565b5b92915050565b7f556e7374616b696e6720746f6f206c6172676500000000000000000000000000600082015250565b6000612ef7601383612b41565b9150612f0282612ec1565b602082019050919050565b60006020820190508181036000830152612f2681612eea565b9050919050565b6000604082019050612f426000830185612674565b612f4f6020830184612674565b9392505050565b7f416363657373436f6e74726f6c3a2063616e206f6e6c792072656e6f756e636560008201527f20726f6c657320666f722073656c660000000000000000000000000000000000602082015250565b6000612fb2602f83612b41565b9150612fbd82612f56565b604082019050919050565b60006020820190508181036000830152612fe181612fa5565b9050919050565b7f4e6f74206f776e65720000000000000000000000000000000000000000000000600082015250565b600061301e600983612b41565b915061302982612fe8565b602082019050919050565b6000602082019050818103600083015261304d81613011565b9050919050565b600060608201905061306960008301866127c4565b61307660208301856127c4565b6130836040830184612674565b949350505050565b7f496e697469616c697a61626c653a20636f6e747261637420697320616c72656160008201527f647920696e697469616c697a6564000000000000000000000000000000000000602082015250565b60006130e7602e83612b41565b91506130f28261308b565b604082019050919050565b60006020820190508181036000830152613116816130da565b9050919050565b6000819050919050565b600060ff82169050919050565b600061314f61314a6131458461311d565b6127ee565b613127565b9050919050565b61315f81613134565b82525050565b600060208201905061317a6000830184613156565b92915050565b7f4e487b7100000000000000000000000000000000000000000000000000000000600052604160045260246000fd5b7f6c656e677468206d69736d617463680000000000000000000000000000000000600082015250565b60006131e5600f83612b41565b91506131f0826131af565b602082019050919050565b60006020820190508181036000830152613214816131d8565b9050919050565b7f77726f6e6720696e646578000000000000000000000000000000000000000000600082015250565b6000613251600b83612b41565b915061325c8261321b565b602082019050919050565b6000602082019050818103600083015261328081613244565b9050919050565b7f496e697469616c697a61626c653a20636f6e7472616374206973206e6f74206960008201527f6e697469616c697a696e67000000000000000000000000000000000000000000602082015250565b60006132e3602b83612b41565b91506132ee82613287565b604082019050919050565b60006020820190508181036000830152613312816132d6565b9050919050565b600081905092915050565b7f416363657373436f6e74726f6c3a206163636f756e7420000000000000000000600082015250565b600061335a601783613319565b915061336582613324565b601782019050919050565b600081519050919050565b60005b8381101561339957808201518184015260208101905061337e565b60008484015250505050565b60006133b082613370565b6133ba8185613319565b93506133ca81856020860161337b565b80840191505092915050565b7f206973206d697373696e6720726f6c6520000000000000000000000000000000600082015250565b600061340c601183613319565b9150613417826133d6565b601182019050919050565b600061342d8261334d565b915061343982856133a5565b9150613444826133ff565b915061345082846133a5565b91508190509392505050565b6000601f19601f8301169050919050565b600061347882613370565b6134828185612b41565b935061349281856020860161337b565b61349b8161345c565b840191505092915050565b600060208201905081810360008301526134c0818461346d565b905092915050565b60006134d38261266a565b91506134de8361266a565b92508282026134ec8161266a565b9150828204841483151761350357613502612bed565b5b5092915050565b60006135158261266a565b91506000820361352857613527612bed565b5b600182039050919050565b7f537472696e67733a20686578206c656e67746820696e73756666696369656e74600082015250565b6000613569602083612b41565b915061357482613533565b602082019050919050565b600060208201905081810360008301526135988161355c565b905091905056fea2646970667358221220a466f1bfa7f897c369762c1daa0bd22d2faf9df96625284f15c76b877704cd5d64736f6c63430008110033",
  "immutableReferences": {},
  "source": "// contracts/CoveyStaking.sol\r\n// SPDX-License-Identifier: MIT\r\npragma solidity ^0.8.9;\r\n\r\nimport '@openzeppelin/contracts-upgradeable/proxy/utils/Initializable.sol';\r\nimport '@openzeppelin/contracts/token/ERC20/IERC20.sol';\r\nimport \"@openzeppelin/contracts-upgradeable/access/AccessControlUpgradeable.sol\";\r\nimport \"@openzeppelin/contracts-upgradeable/utils/structs/EnumerableSetUpgradeable.sol\";\r\n\r\ncontract CoveyStaking is Initializable, AccessControlUpgradeable {\r\n    using EnumerableSetUpgradeable for EnumerableSetUpgradeable.AddressSet;\r\n\r\n    bytes32 public constant DISPENSER = keccak256(\"DISPENSER\");\r\n    IERC20 public stakingToken;\r\n    struct StakeInfo {\r\n      address staker;\r\n      uint256 stakedAmount;\r\n    }\r\n    EnumerableSetUpgradeable.AddressSet internal stakers;\r\n    address[] public pendingUnstakers;\r\n\r\n    mapping(address => uint256) public stakedAmounts;\r\n    mapping(address => uint256) public unstakedAmounts;\r\n\r\n    event Staked(address indexed _adr, uint256 amount, uint256 totalStakedAmount);\r\n    \r\n    event Unstaked(address indexed _adr, uint256 amount, uint256 totalUnstakedAmount);\r\n\r\n    event CancelledUnstake(address indexed _adr);\r\n\r\n    event Bankrupt(address indexed _adr, uint256 amountLost);\r\n\r\n    event StakeDispensed(address indexed _adr, uint256 amountDispensed);\r\n\r\n    modifier onlyOwner {\r\n        require(hasRole(DEFAULT_ADMIN_ROLE, msg.sender), \"Not owner\");\r\n        _;\r\n    }\r\n\r\n    modifier onlyOwnerOrDispenser {\r\n        require(\r\n            hasRole(DEFAULT_ADMIN_ROLE, msg.sender) ||\r\n            hasRole(DISPENSER, msg.sender),\r\n            \"Only owner or dispenser\"\r\n        );\r\n        _;\r\n    }\r\n\r\n    /// @custom:oz-upgrades-unsafe-allow constructor\r\n    constructor() {\r\n        _disableInitializers();\r\n    }\r\n\r\n    function initialize(IERC20 _stakingToken) public initializer {\r\n        __AccessControl_init();\r\n        stakingToken = _stakingToken;\r\n        _setupRole(DEFAULT_ADMIN_ROLE, msg.sender);\r\n    }\r\n\r\n    function stake(uint256 amount) external {\r\n        require(amount != 0, \"0 amount\");\r\n        stakingToken.transferFrom(msg.sender, address(this), amount);\r\n        // if recognised as first time staker, push to staker list\r\n        if (!stakers.contains(msg.sender)) stakers.add(msg.sender);\r\n        uint256 totalStakedAmount = stakedAmounts[msg.sender] + amount;\r\n        stakedAmounts[msg.sender] = totalStakedAmount;\r\n        emit Staked(msg.sender, amount, totalStakedAmount);\r\n    }\r\n\r\n    function unstake(uint256 amount) external {\r\n        require(amount != 0, \"0 amount\");\r\n        uint256 totalUnstakedAmount = unstakedAmounts[msg.sender] + amount;\r\n        require(stakedAmounts[msg.sender] >= totalUnstakedAmount, \"Unstaking too large\");\r\n        // add to pending unstaker list\r\n        // if user unstaking for first time since dispenseStakes() was called\r\n        // checking (totalUnstakedAmount == amount) instead of (unstakedAmounts[msg.sender] == 0)\r\n        // is more gas efficient because it avoids an SLOAD\r\n        if (totalUnstakedAmount == amount) {\r\n            pendingUnstakers.push(msg.sender);\r\n        }\r\n        unstakedAmounts[msg.sender] = totalUnstakedAmount;\r\n        emit Unstaked(msg.sender, amount, totalUnstakedAmount);\r\n    }\r\n\r\n    /// @dev iterates through pendingUnstakers, might run out of gas\r\n    function cancelUnstake() external {\r\n        require(unstakedAmounts[msg.sender] > 0, \"0 unstake\");\r\n        delete unstakedAmounts[msg.sender];\r\n        uint256 numUnstakers = pendingUnstakers.length;\r\n        for (uint i; i < numUnstakers; ++i) {\r\n            if (pendingUnstakers[i] == msg.sender) {\r\n                pendingUnstakers[i] = pendingUnstakers[numUnstakers - 1];\r\n                pendingUnstakers.pop();\r\n                break;\r\n            }\r\n        }\r\n        emit CancelledUnstake(msg.sender);\r\n    }\r\n\r\n    /// @dev more gas efficient by taking in the index to avoid iterating through pendingUnstakers\r\n    function cancelUnstake(uint256 index) external {\r\n        require(unstakedAmounts[msg.sender] > 0, \"0 unstake\");\r\n        delete unstakedAmounts[msg.sender];\r\n        require(pendingUnstakers[index] == msg.sender, \"Wrong index\");\r\n        pendingUnstakers[index] = pendingUnstakers[pendingUnstakers.length - 1];\r\n        pendingUnstakers.pop();\r\n        emit CancelledUnstake(msg.sender);\r\n    }\r\n\r\n    function dispenseStakes() external onlyOwnerOrDispenser {\r\n        // iterate through pendingUnstakers list\r\n        uint256 numUnstakers = pendingUnstakers.length;\r\n        address unstaker;\r\n        uint256 unstakeAmount;\r\n        for(uint256 i; i < numUnstakers; ++i) {\r\n            unstaker = pendingUnstakers[i];\r\n            unstakeAmount = unstakedAmounts[unstaker];\r\n            stakedAmounts[unstaker] = stakedAmounts[unstaker] - unstakeAmount;\r\n            delete unstakedAmounts[unstaker];\r\n\r\n            // remove from staking list if user has 0 stake after unstaking\r\n            if (stakedAmounts[unstaker] == 0) stakers.remove(unstaker);\r\n\r\n            stakingToken.transfer(unstaker, unstakeAmount);\r\n            emit StakeDispensed(unstaker, unstakeAmount);\r\n        }\r\n        // finally, reset pendingUnstakers list\r\n        delete pendingUnstakers;\r\n    }\r\n\r\n    /// @param indices array of indices of bankruptAddresses in the pendingUnstaker array\r\n    /// value will be ignored if bankruptAddress has no pending unstakes\r\n    /// @dev indices to be of same length as bankruptAddresses\r\n    function bankruptStakers(\r\n        address bankruptciesReceiver,\r\n        address[] calldata bankruptAddresses,\r\n        uint256[] calldata indices\r\n    ) external onlyOwner {\r\n        uint256 bankruptAddressesLength = bankruptAddresses.length;\r\n        require(bankruptAddressesLength == indices.length, \"length mismatch\");\r\n        address bankruptAddress;\r\n        uint256 stakedAmount;\r\n        for (uint i = 0; i < bankruptAddressesLength; ++i) {\r\n            bankruptAddress = bankruptAddresses[i];\r\n            stakedAmount = stakedAmounts[bankruptAddress];\r\n\r\n            // remove from pendingUnstaker list if bankruptAddress has a pending unstake\r\n            // subsequently zeroes unstakedAmounts mapping\r\n            if (unstakedAmounts[bankruptAddress] > 0) {\r\n                require(pendingUnstakers[indices[i]] == bankruptAddress, \"wrong index\");\r\n                pendingUnstakers[indices[i]] = pendingUnstakers[pendingUnstakers.length - 1];\r\n                pendingUnstakers.pop();\r\n                delete unstakedAmounts[bankruptAddress];\r\n            }\r\n\r\n            // remove from stakedAmounts mapping\r\n            delete stakedAmounts[bankruptAddress];\r\n\r\n            // remove from stakers list\r\n            stakers.remove(bankruptAddress);\r\n\r\n            // transfer stakedAmount to specified receiver address\r\n            stakingToken.transfer(bankruptciesReceiver, stakedAmount);\r\n            emit Bankrupt(bankruptAddress, stakedAmount);\r\n        }\r\n    }\r\n\r\n    function getNetStaked(address staker) public view returns (uint) {\r\n        return stakedAmounts[staker] - unstakedAmounts[staker];\r\n    }\r\n\r\n    function getAllNetStaked() external view returns (StakeInfo[] memory stakeInformation) {\r\n        uint256 numStakers = stakers.length();\r\n        stakeInformation = new StakeInfo[](numStakers);\r\n        address staker;\r\n        for(uint256 i; i < numStakers; ++i) {\r\n            staker = stakers.at(i);\r\n            stakeInformation[i] = StakeInfo({\r\n                staker: staker,\r\n                stakedAmount: getNetStaked(staker)\r\n            });\r\n        }\r\n    }\r\n\r\n    function delegateDispenser(address _addr) external onlyOwner {\r\n        grantRole(DISPENSER, _addr);\r\n    }\r\n\r\n    function revokeDispenser(address _addr) external onlyOwner {\r\n        revokeRole(DISPENSER, _addr);\r\n    }\r\n}\r\n",
  "sourcePath": "c:\\Users\\jcara\\Documents\\repos\\staking-polygon\\contracts\\CoveyStaking.sol",
  "compiler": {
    "name": "solc",
    "version": "0.8.17+commit.8df45f5f.Emscripten.clang"
  },
  "schemaVersion": "3.4.11",
  "updatedAt": "2022-12-12T16:39:35.170Z",
  "networkType": "ethereum",
  "devdoc": {
    "kind": "dev",
    "methods": {
      "bankruptStakers(address,address[],uint256[])": {
        "details": "indices to be of same length as bankruptAddresses",
        "params": {
          "indices": "array of indices of bankruptAddresses in the pendingUnstaker array value will be ignored if bankruptAddress has no pending unstakes"
        }
      },
      "cancelUnstake()": {
        "details": "iterates through pendingUnstakers, might run out of gas"
      },
      "cancelUnstake(uint256)": {
        "details": "more gas efficient by taking in the index to avoid iterating through pendingUnstakers"
      },
      "constructor": {
        "custom:oz-upgrades-unsafe-allow": "constructor"
      },
      "getRoleAdmin(bytes32)": {
        "details": "Returns the admin role that controls `role`. See {grantRole} and {revokeRole}. To change a role's admin, use {_setRoleAdmin}."
      },
      "grantRole(bytes32,address)": {
        "details": "Grants `role` to `account`. If `account` had not been already granted `role`, emits a {RoleGranted} event. Requirements: - the caller must have ``role``'s admin role. May emit a {RoleGranted} event."
      },
      "hasRole(bytes32,address)": {
        "details": "Returns `true` if `account` has been granted `role`."
      },
      "renounceRole(bytes32,address)": {
        "details": "Revokes `role` from the calling account. Roles are often managed via {grantRole} and {revokeRole}: this function's purpose is to provide a mechanism for accounts to lose their privileges if they are compromised (such as when a trusted device is misplaced). If the calling account had been revoked `role`, emits a {RoleRevoked} event. Requirements: - the caller must be `account`. May emit a {RoleRevoked} event."
      },
      "revokeRole(bytes32,address)": {
        "details": "Revokes `role` from `account`. If `account` had been granted `role`, emits a {RoleRevoked} event. Requirements: - the caller must have ``role``'s admin role. May emit a {RoleRevoked} event."
      },
      "supportsInterface(bytes4)": {
        "details": "See {IERC165-supportsInterface}."
      }
    },
    "version": 1
  },
  "userdoc": {
    "kind": "user",
    "methods": {},
    "version": 1
  }
}